{
  "_format": "hh-sol-artifact-1",
  "contractName": "Escrow",
  "sourceName": "contracts/Escrow.sol",
  "abi": [
    {
      "inputs": [
        {
          "internalType": "address",
          "name": "_disputeNFTMarketAddr",
          "type": "address"
        },
        {
          "internalType": "address",
          "name": "_marketplaceOwner",
          "type": "address"
        }
      ],
      "stateMutability": "nonpayable",
      "type": "constructor"
    },
    {
      "anonymous": false,
      "inputs": [
        {
          "indexed": false,
          "internalType": "address",
          "name": "buyer",
          "type": "address"
        },
        {
          "indexed": false,
          "internalType": "address",
          "name": "seller",
          "type": "address"
        },
        {
          "indexed": false,
          "internalType": "address",
          "name": "purchasedNFT",
          "type": "address"
        },
        {
          "indexed": false,
          "internalType": "uint256",
          "name": "tokenId",
          "type": "uint256"
        },
        {
          "indexed": false,
          "internalType": "uint256",
          "name": "nftPrice",
          "type": "uint256"
        },
        {
          "indexed": false,
          "internalType": "uint256",
          "name": "timeOfPurchase",
          "type": "uint256"
        }
      ],
      "name": "BuyWithSafeArb",
      "type": "event"
    },
    {
      "stateMutability": "payable",
      "type": "fallback"
    },
    {
      "inputs": [
        {
          "internalType": "address",
          "name": "_purchasedNFT",
          "type": "address"
        },
        {
          "internalType": "uint256",
          "name": "_tokenId",
          "type": "uint256"
        }
      ],
      "name": "approveNFTReturn",
      "outputs": [],
      "stateMutability": "nonpayable",
      "type": "function"
    },
    {
      "inputs": [
        {
          "internalType": "address",
          "name": "_seller",
          "type": "address"
        },
        {
          "internalType": "address",
          "name": "_purchasedNFT",
          "type": "address"
        },
        {
          "internalType": "uint256",
          "name": "_tokenId",
          "type": "uint256"
        },
        {
          "internalType": "uint256",
          "name": "_nftPrice",
          "type": "uint256"
        }
      ],
      "name": "buyWithJustiFi",
      "outputs": [],
      "stateMutability": "payable",
      "type": "function"
    },
    {
      "inputs": [],
      "name": "getBalance",
      "outputs": [
        {
          "internalType": "uint256",
          "name": "",
          "type": "uint256"
        }
      ],
      "stateMutability": "view",
      "type": "function"
    },
    {
      "inputs": [
        {
          "internalType": "address",
          "name": "_purchasedNFT",
          "type": "address"
        },
        {
          "internalType": "uint256",
          "name": "_tokenId",
          "type": "uint256"
        },
        {
          "internalType": "uint256",
          "name": "disputeId",
          "type": "uint256"
        }
      ],
      "name": "releaseFundToBuyer",
      "outputs": [],
      "stateMutability": "nonpayable",
      "type": "function"
    },
    {
      "inputs": [
        {
          "internalType": "address",
          "name": "_purchasedNFT",
          "type": "address"
        },
        {
          "internalType": "uint256",
          "name": "_tokenId",
          "type": "uint256"
        },
        {
          "internalType": "uint256",
          "name": "disputeId",
          "type": "uint256"
        }
      ],
      "name": "releaseFundToSeller",
      "outputs": [],
      "stateMutability": "nonpayable",
      "type": "function"
    },
    {
      "inputs": [
        {
          "internalType": "uint256",
          "name": "_tokenId",
          "type": "uint256"
        },
        {
          "internalType": "address",
          "name": "_purchasedNFT",
          "type": "address"
        }
      ],
      "name": "releaseFundToSellerNoDispute",
      "outputs": [],
      "stateMutability": "nonpayable",
      "type": "function"
    },
    {
      "inputs": [
        {
          "internalType": "address",
          "name": "_purchasedNFT",
          "type": "address"
        },
        {
          "internalType": "uint256",
          "name": "_tokenId",
          "type": "uint256"
        }
      ],
      "name": "returnNFT",
      "outputs": [],
      "stateMutability": "nonpayable",
      "type": "function"
    },
    {
      "inputs": [
        {
          "internalType": "uint256",
          "name": "_delayInSeconds",
          "type": "uint256"
        }
      ],
      "name": "setDelay",
      "outputs": [],
      "stateMutability": "nonpayable",
      "type": "function"
    },
    {
      "stateMutability": "payable",
      "type": "receive"
    }
  ],
  "bytecode": "0x60a0604052620697806002553480156200001857600080fd5b5060405162001de838038062001de883398181016040528101906200003e9190620000d5565b8173ffffffffffffffffffffffffffffffffffffffff1660808173ffffffffffffffffffffffffffffffffffffffff1660601b8152505080600360006101000a81548173ffffffffffffffffffffffffffffffffffffffff021916908373ffffffffffffffffffffffffffffffffffffffff160217905550505062000164565b600081519050620000cf816200014a565b92915050565b60008060408385031215620000e957600080fd5b6000620000f985828601620000be565b92505060206200010c85828601620000be565b9150509250929050565b600062000123826200012a565b9050919050565b600073ffffffffffffffffffffffffffffffffffffffff82169050919050565b620001558162000116565b81146200016157600080fd5b50565b60805160601c611c5e6200018a600039600081816102aa0152610e780152611c5e6000f3fe60806040526004361061007f5760003560e01c8063817d4c7e1161004e578063817d4c7e1461012e578063a7806db41461014a578063ccb568ec14610173578063e177246e1461019c57610086565b806302add218146100885780630f014e61146100b157806312065fe0146100da578063350483a81461010557610086565b3661008657005b005b34801561009457600080fd5b506100af60048036038101906100aa919061151b565b6101c5565b005b3480156100bd57600080fd5b506100d860048036038101906100d391906114df565b610620565b005b3480156100e657600080fd5b506100ef610691565b6040516100fc919061196a565b60405180910390f35b34801561011157600080fd5b5061012c60048036038101906101279190611593565b610699565b005b6101486004803603810190610143919061147c565b610aa7565b005b34801561015657600080fd5b50610171600480360381019061016c919061151b565b610d93565b005b34801561017f57600080fd5b5061019a600480360381019061019591906114df565b6112c8565b005b3480156101a857600080fd5b506101c360048036038101906101be919061156a565b6113d9565b005b600460008473ffffffffffffffffffffffffffffffffffffffff1673ffffffffffffffffffffffffffffffffffffffff168152602001908152602001600020600083815260200190815260200160002060010160009054906101000a900473ffffffffffffffffffffffffffffffffffffffff1673ffffffffffffffffffffffffffffffffffffffff163373ffffffffffffffffffffffffffffffffffffffff16146102a6576040517f08c379a000000000000000000000000000000000000000000000000000000000815260040161029d906118ca565b60405180910390fd5b60027f000000000000000000000000000000000000000000000000000000000000000073ffffffffffffffffffffffffffffffffffffffff1663ca6f5023836040518263ffffffff1660e01b8152600401610301919061196a565b60206040518083038186803b15801561031957600080fd5b505afa15801561032d573d6000803e3d6000fd5b505050506040513d601f19601f8201168201806040525081019061035191906115cf565b60ff1614610394576040517f08c379a000000000000000000000000000000000000000000000000000000000815260040161038b906118aa565b60405180910390fd5b600560008473ffffffffffffffffffffffffffffffffffffffff1673ffffffffffffffffffffffffffffffffffffffff168152602001908152602001600020600083815260200190815260200160002060003373ffffffffffffffffffffffffffffffffffffffff1673ffffffffffffffffffffffffffffffffffffffff16815260200190815260200160002060009054906101000a900460ff161561046f576040517f08c379a00000000000000000000000000000000000000000000000000000000081526004016104669061192a565b60405180910390fd5b6000600460008573ffffffffffffffffffffffffffffffffffffffff1673ffffffffffffffffffffffffffffffffffffffff16815260200190815260200160002060008481526020019081526020016000206004015490506001600560008673ffffffffffffffffffffffffffffffffffffffff1673ffffffffffffffffffffffffffffffffffffffff168152602001908152602001600020600085815260200190815260200160002060003373ffffffffffffffffffffffffffffffffffffffff1673ffffffffffffffffffffffffffffffffffffffff16815260200190815260200160002060006101000a81548160ff02191690831515021790555060003373ffffffffffffffffffffffffffffffffffffffff168260405161059390611774565b60006040518083038185875af1925050503d80600081146105d0576040519150601f19603f3d011682016040523d82523d6000602084013e6105d5565b606091505b5050905080610619576040517f08c379a00000000000000000000000000000000000000000000000000000000081526004016106109061190a565b60405180910390fd5b5050505050565b8173ffffffffffffffffffffffffffffffffffffffff1663095ea7b330836040518363ffffffff1660e01b815260040161065b929190611821565b600060405180830381600087803b15801561067557600080fd5b505af1158015610689573d6000803e3d6000fd5b505050505050565b600047905090565b600254600460008373ffffffffffffffffffffffffffffffffffffffff1673ffffffffffffffffffffffffffffffffffffffff1681526020019081526020016000206000848152602001908152602001600020600501546106fa91906119a1565b421161073b576040517f08c379a00000000000000000000000000000000000000000000000000000000081526004016107329061186a565b60405180910390fd5b3373ffffffffffffffffffffffffffffffffffffffff16600460008373ffffffffffffffffffffffffffffffffffffffff1673ffffffffffffffffffffffffffffffffffffffff168152602001908152602001600020600084815260200190815260200160002060010160009054906101000a900473ffffffffffffffffffffffffffffffffffffffff1673ffffffffffffffffffffffffffffffffffffffff161461081c576040517f08c379a0000000000000000000000000000000000000000000000000000000008152600401610813906118ca565b60405180910390fd5b600560008273ffffffffffffffffffffffffffffffffffffffff1673ffffffffffffffffffffffffffffffffffffffff168152602001908152602001600020600083815260200190815260200160002060003373ffffffffffffffffffffffffffffffffffffffff1673ffffffffffffffffffffffffffffffffffffffff16815260200190815260200160002060009054906101000a900460ff16156108f7576040517f08c379a00000000000000000000000000000000000000000000000000000000081526004016108ee9061192a565b60405180910390fd5b6000600460008373ffffffffffffffffffffffffffffffffffffffff1673ffffffffffffffffffffffffffffffffffffffff16815260200190815260200160002060008481526020019081526020016000206004015490506001600560008473ffffffffffffffffffffffffffffffffffffffff1673ffffffffffffffffffffffffffffffffffffffff168152602001908152602001600020600085815260200190815260200160002060003373ffffffffffffffffffffffffffffffffffffffff1673ffffffffffffffffffffffffffffffffffffffff16815260200190815260200160002060006101000a81548160ff02191690831515021790555060003373ffffffffffffffffffffffffffffffffffffffff1682604051610a1b90611774565b60006040518083038185875af1925050503d8060008114610a58576040519150601f19603f3d011682016040523d82523d6000602084013e610a5d565b606091505b5050905080610aa1576040517f08c379a0000000000000000000000000000000000000000000000000000000008152600401610a989061190a565b60405180910390fd5b50505050565b80341015610aea576040517f08c379a0000000000000000000000000000000000000000000000000000000008152600401610ae19061184a565b60405180910390fd5b6040518060c001604052803373ffffffffffffffffffffffffffffffffffffffff1681526020018573ffffffffffffffffffffffffffffffffffffffff1681526020018473ffffffffffffffffffffffffffffffffffffffff16815260200183815260200182815260200142815250600460008573ffffffffffffffffffffffffffffffffffffffff1673ffffffffffffffffffffffffffffffffffffffff168152602001908152602001600020600084815260200190815260200160002060008201518160000160006101000a81548173ffffffffffffffffffffffffffffffffffffffff021916908373ffffffffffffffffffffffffffffffffffffffff16021790555060208201518160010160006101000a81548173ffffffffffffffffffffffffffffffffffffffff021916908373ffffffffffffffffffffffffffffffffffffffff16021790555060408201518160020160006101000a81548173ffffffffffffffffffffffffffffffffffffffff021916908373ffffffffffffffffffffffffffffffffffffffff160217905550606082015181600301556080820151816004015560a0820151816005015590505060003073ffffffffffffffffffffffffffffffffffffffff1682604051610cc590611774565b60006040518083038185875af1925050503d8060008114610d02576040519150601f19603f3d011682016040523d82523d6000602084013e610d07565b606091505b5050905080610d4b576040517f08c379a0000000000000000000000000000000000000000000000000000000008152600401610d429061194a565b60405180910390fd5b7ffdf7158e8b91aeb8b287cd849a585b5772df6fee749fa86fb2460ad22bb6865d338686868642604051610d8496959493929190611789565b60405180910390a15050505050565b600460008473ffffffffffffffffffffffffffffffffffffffff1673ffffffffffffffffffffffffffffffffffffffff168152602001908152602001600020600083815260200190815260200160002060000160009054906101000a900473ffffffffffffffffffffffffffffffffffffffff1673ffffffffffffffffffffffffffffffffffffffff163373ffffffffffffffffffffffffffffffffffffffff1614610e74576040517f08c379a0000000000000000000000000000000000000000000000000000000008152600401610e6b9061188a565b60405180910390fd5b60017f000000000000000000000000000000000000000000000000000000000000000073ffffffffffffffffffffffffffffffffffffffff1663ca6f5023836040518263ffffffff1660e01b8152600401610ecf919061196a565b60206040518083038186803b158015610ee757600080fd5b505afa158015610efb573d6000803e3d6000fd5b505050506040513d601f19601f82011682018060405250810190610f1f91906115cf565b60ff1614610f62576040517f08c379a0000000000000000000000000000000000000000000000000000000008152600401610f59906118aa565b60405180910390fd5b600560008473ffffffffffffffffffffffffffffffffffffffff1673ffffffffffffffffffffffffffffffffffffffff168152602001908152602001600020600083815260200190815260200160002060003373ffffffffffffffffffffffffffffffffffffffff1673ffffffffffffffffffffffffffffffffffffffff16815260200190815260200160002060009054906101000a900460ff161561103d576040517f08c379a00000000000000000000000000000000000000000000000000000000081526004016110349061192a565b60405180910390fd5b600660008473ffffffffffffffffffffffffffffffffffffffff1673ffffffffffffffffffffffffffffffffffffffff168152602001908152602001600020600083815260200190815260200160002060003373ffffffffffffffffffffffffffffffffffffffff1673ffffffffffffffffffffffffffffffffffffffff16815260200190815260200160002060009054906101000a900460ff16611117576040517f08c379a000000000000000000000000000000000000000000000000000000000815260040161110e906118ea565b60405180910390fd5b6000600460008573ffffffffffffffffffffffffffffffffffffffff1673ffffffffffffffffffffffffffffffffffffffff16815260200190815260200160002060008481526020019081526020016000206004015490506001600560008673ffffffffffffffffffffffffffffffffffffffff1673ffffffffffffffffffffffffffffffffffffffff168152602001908152602001600020600085815260200190815260200160002060003373ffffffffffffffffffffffffffffffffffffffff1673ffffffffffffffffffffffffffffffffffffffff16815260200190815260200160002060006101000a81548160ff02191690831515021790555060003373ffffffffffffffffffffffffffffffffffffffff168260405161123b90611774565b60006040518083038185875af1925050503d8060008114611278576040519150601f19603f3d011682016040523d82523d6000602084013e61127d565b606091505b50509050806112c1576040517f08c379a00000000000000000000000000000000000000000000000000000000081526004016112b89061190a565b60405180910390fd5b5050505050565b60011515600660008473ffffffffffffffffffffffffffffffffffffffff1673ffffffffffffffffffffffffffffffffffffffff168152602001908152602001600020600083815260200190815260200160002060003373ffffffffffffffffffffffffffffffffffffffff1673ffffffffffffffffffffffffffffffffffffffff16815260200190815260200160002060009054906101000a905050508173ffffffffffffffffffffffffffffffffffffffff166342842e0e3330846040518463ffffffff1660e01b81526004016113a3939291906117ea565b600060405180830381600087803b1580156113bd57600080fd5b505af11580156113d1573d6000803e3d6000fd5b505050505050565b600360009054906101000a900473ffffffffffffffffffffffffffffffffffffffff1673ffffffffffffffffffffffffffffffffffffffff163373ffffffffffffffffffffffffffffffffffffffff161461143357600080fd5b8060028190555050565b60008135905061144c81611be3565b92915050565b60008135905061146181611bfa565b92915050565b60008151905061147681611c11565b92915050565b6000806000806080858703121561149257600080fd5b60006114a08782880161143d565b94505060206114b18782880161143d565b93505060406114c287828801611452565b92505060606114d387828801611452565b91505092959194509250565b600080604083850312156114f257600080fd5b60006115008582860161143d565b925050602061151185828601611452565b9150509250929050565b60008060006060848603121561153057600080fd5b600061153e8682870161143d565b935050602061154f86828701611452565b925050604061156086828701611452565b9150509250925092565b60006020828403121561157c57600080fd5b600061158a84828501611452565b91505092915050565b600080604083850312156115a657600080fd5b60006115b485828601611452565b92505060206115c58582860161143d565b9150509250929050565b6000602082840312156115e157600080fd5b60006115ef84828501611467565b91505092915050565b611601816119f7565b82525050565b6000611614601483611990565b915061161f82611a6f565b602082019050919050565b6000611637600483611990565b915061164282611a98565b602082019050919050565b600061165a600983611990565b915061166582611ac1565b602082019050919050565b600061167d601583611990565b915061168882611aea565b602082019050919050565b60006116a0600a83611990565b91506116ab82611b13565b602082019050919050565b60006116c3601083611990565b91506116ce82611b3c565b602082019050919050565b60006116e6601983611990565b91506116f182611b65565b602082019050919050565b6000611709600f83611990565b915061171482611b8e565b602082019050919050565b600061172c600083611985565b915061173782611bb7565b600082019050919050565b600061174f600f83611990565b915061175a82611bba565b602082019050919050565b61176e81611a29565b82525050565b600061177f8261171f565b9150819050919050565b600060c08201905061179e60008301896115f8565b6117ab60208301886115f8565b6117b860408301876115f8565b6117c56060830186611765565b6117d26080830185611765565b6117df60a0830184611765565b979650505050505050565b60006060820190506117ff60008301866115f8565b61180c60208301856115f8565b6118196040830184611765565b949350505050565b600060408201905061183660008301856115f8565b6118436020830184611765565b9392505050565b6000602082019050818103600083015261186381611607565b9050919050565b600060208201905081810360008301526118838161162a565b9050919050565b600060208201905081810360008301526118a38161164d565b9050919050565b600060208201905081810360008301526118c381611670565b9050919050565b600060208201905081810360008301526118e381611693565b9050919050565b60006020820190508181036000830152611903816116b6565b9050919050565b60006020820190508181036000830152611923816116d9565b9050919050565b60006020820190508181036000830152611943816116fc565b9050919050565b6000602082019050818103600083015261196381611742565b9050919050565b600060208201905061197f6000830184611765565b92915050565b600081905092915050565b600082825260208201905092915050565b60006119ac82611a29565b91506119b783611a29565b9250827fffffffffffffffffffffffffffffffffffffffffffffffffffffffffffffffff038211156119ec576119eb611a40565b5b828201905092915050565b6000611a0282611a09565b9050919050565b600073ffffffffffffffffffffffffffffffffffffffff82169050919050565b6000819050919050565b600060ff82169050919050565b7f4e487b7100000000000000000000000000000000000000000000000000000000600052601160045260246000fd5b7f494e53554646494349454e545f42414c414e4345000000000000000000000000600082015250565b7f54494d4500000000000000000000000000000000000000000000000000000000600082015250565b7f4e4f545f42555945520000000000000000000000000000000000000000000000600082015250565b7f4e4f545f454c494749424c455f464f525f46554e440000000000000000000000600082015250565b7f4e4f545f53454c4c455200000000000000000000000000000000000000000000600082015250565b7f52455455524e5f4e46545f464952535400000000000000000000000000000000600082015250565b7f5452414e534645525f544f5f53454c4c45525f4641494c454400000000000000600082015250565b7f434c41494d45445f414c52454144590000000000000000000000000000000000600082015250565b50565b7f7472616e73666572206661696c65640000000000000000000000000000000000600082015250565b611bec816119f7565b8114611bf757600080fd5b50565b611c0381611a29565b8114611c0e57600080fd5b50565b611c1a81611a33565b8114611c2557600080fd5b5056fea26469706673582212205facd8ca7ed7cf8c5307ad9a953d0c803a62dd7f8a000abe5e1d32e697c3ca2264736f6c63430008040033",
  "linkReferences": {},
  "deployedLinkReferences": {}
}