{
  "_format": "hh-sol-artifact-1",
  "contractName": "DisputeNFTMarket",
  "sourceName": "contracts/DisputeNFTMarket.sol",
  "abi": [
    {
      "inputs": [
        {
          "internalType": "address",
          "name": "_marketPlaceOwner",
          "type": "address"
        }
      ],
      "stateMutability": "nonpayable",
      "type": "constructor"
    },
    {
      "anonymous": false,
      "inputs": [
        {
          "indexed": true,
          "internalType": "uint256",
          "name": "itemId",
          "type": "uint256"
        },
        {
          "indexed": true,
          "internalType": "address",
          "name": "nftContract",
          "type": "address"
        },
        {
          "indexed": true,
          "internalType": "address",
          "name": "purchasedNFT",
          "type": "address"
        },
        {
          "indexed": false,
          "internalType": "uint256",
          "name": "tokenId",
          "type": "uint256"
        },
        {
          "indexed": false,
          "internalType": "address",
          "name": "seller",
          "type": "address"
        },
        {
          "indexed": false,
          "internalType": "address",
          "name": "buyer",
          "type": "address"
        },
        {
          "indexed": false,
          "internalType": "uint256",
          "name": "price",
          "type": "uint256"
        },
        {
          "indexed": false,
          "internalType": "enum DisputeNFTMarket.Status",
          "name": "status",
          "type": "uint8"
        },
        {
          "indexed": false,
          "internalType": "enum DisputeNFTMarket.Ruling",
          "name": "ruling",
          "type": "uint8"
        }
      ],
      "name": "DisputeResolved",
      "type": "event"
    },
    {
      "anonymous": false,
      "inputs": [
        {
          "indexed": true,
          "internalType": "uint256",
          "name": "itemId",
          "type": "uint256"
        },
        {
          "indexed": true,
          "internalType": "address",
          "name": "nftContract",
          "type": "address"
        },
        {
          "indexed": true,
          "internalType": "address",
          "name": "purchasedNFT",
          "type": "address"
        },
        {
          "indexed": false,
          "internalType": "uint256",
          "name": "tokenId",
          "type": "uint256"
        },
        {
          "indexed": false,
          "internalType": "address",
          "name": "seller",
          "type": "address"
        },
        {
          "indexed": false,
          "internalType": "address",
          "name": "buyer",
          "type": "address"
        },
        {
          "indexed": false,
          "internalType": "uint256",
          "name": "price",
          "type": "uint256"
        },
        {
          "indexed": false,
          "internalType": "enum DisputeNFTMarket.Status",
          "name": "status",
          "type": "uint8"
        },
        {
          "indexed": false,
          "internalType": "enum DisputeNFTMarket.Ruling",
          "name": "ruling",
          "type": "uint8"
        }
      ],
      "name": "DisputeTokenListed",
      "type": "event"
    },
    {
      "anonymous": false,
      "inputs": [
        {
          "indexed": true,
          "internalType": "address",
          "name": "juror",
          "type": "address"
        },
        {
          "indexed": true,
          "internalType": "uint256",
          "name": "itemId",
          "type": "uint256"
        },
        {
          "indexed": true,
          "internalType": "address",
          "name": "purchasedNFT",
          "type": "address"
        }
      ],
      "name": "JurorAdded",
      "type": "event"
    },
    {
      "inputs": [],
      "name": "ARBITRATION_FEE",
      "outputs": [
        {
          "internalType": "uint256",
          "name": "",
          "type": "uint256"
        }
      ],
      "stateMutability": "view",
      "type": "function"
    },
    {
      "inputs": [
        {
          "internalType": "address",
          "name": "_juror",
          "type": "address"
        }
      ],
      "name": "addJurors",
      "outputs": [],
      "stateMutability": "nonpayable",
      "type": "function"
    },
    {
      "inputs": [
        {
          "internalType": "uint256",
          "name": "itemId",
          "type": "uint256"
        }
      ],
      "name": "cancelDispute",
      "outputs": [],
      "stateMutability": "nonpayable",
      "type": "function"
    },
    {
      "inputs": [],
      "name": "fetchCancelledNFT",
      "outputs": [
        {
          "components": [
            {
              "internalType": "uint256",
              "name": "itemId",
              "type": "uint256"
            },
            {
              "internalType": "address",
              "name": "nftContract",
              "type": "address"
            },
            {
              "internalType": "address",
              "name": "purchasedNFT",
              "type": "address"
            },
            {
              "internalType": "uint256",
              "name": "tokenId",
              "type": "uint256"
            },
            {
              "internalType": "address",
              "name": "seller",
              "type": "address"
            },
            {
              "internalType": "address",
              "name": "buyer",
              "type": "address"
            },
            {
              "internalType": "uint256",
              "name": "price",
              "type": "uint256"
            },
            {
              "internalType": "enum DisputeNFTMarket.Status",
              "name": "status",
              "type": "uint8"
            },
            {
              "internalType": "enum DisputeNFTMarket.Ruling",
              "name": "ruling",
              "type": "uint8"
            }
          ],
          "internalType": "struct DisputeNFTMarket.DisputeToken[]",
          "name": "",
          "type": "tuple[]"
        }
      ],
      "stateMutability": "view",
      "type": "function"
    },
    {
      "inputs": [
        {
          "internalType": "uint256",
          "name": "itemId",
          "type": "uint256"
        }
      ],
      "name": "fetchDisputeStatus",
      "outputs": [
        {
          "internalType": "uint8",
          "name": "",
          "type": "uint8"
        }
      ],
      "stateMutability": "view",
      "type": "function"
    },
    {
      "inputs": [],
      "name": "fetchMyNFT",
      "outputs": [
        {
          "components": [
            {
              "internalType": "uint256",
              "name": "itemId",
              "type": "uint256"
            },
            {
              "internalType": "address",
              "name": "nftContract",
              "type": "address"
            },
            {
              "internalType": "address",
              "name": "purchasedNFT",
              "type": "address"
            },
            {
              "internalType": "uint256",
              "name": "tokenId",
              "type": "uint256"
            },
            {
              "internalType": "address",
              "name": "seller",
              "type": "address"
            },
            {
              "internalType": "address",
              "name": "buyer",
              "type": "address"
            },
            {
              "internalType": "uint256",
              "name": "price",
              "type": "uint256"
            },
            {
              "internalType": "enum DisputeNFTMarket.Status",
              "name": "status",
              "type": "uint8"
            },
            {
              "internalType": "enum DisputeNFTMarket.Ruling",
              "name": "ruling",
              "type": "uint8"
            }
          ],
          "internalType": "struct DisputeNFTMarket.DisputeToken[]",
          "name": "",
          "type": "tuple[]"
        }
      ],
      "stateMutability": "view",
      "type": "function"
    },
    {
      "inputs": [],
      "name": "fetchPendingNFT",
      "outputs": [
        {
          "components": [
            {
              "internalType": "uint256",
              "name": "itemId",
              "type": "uint256"
            },
            {
              "internalType": "address",
              "name": "nftContract",
              "type": "address"
            },
            {
              "internalType": "address",
              "name": "purchasedNFT",
              "type": "address"
            },
            {
              "internalType": "uint256",
              "name": "tokenId",
              "type": "uint256"
            },
            {
              "internalType": "address",
              "name": "seller",
              "type": "address"
            },
            {
              "internalType": "address",
              "name": "buyer",
              "type": "address"
            },
            {
              "internalType": "uint256",
              "name": "price",
              "type": "uint256"
            },
            {
              "internalType": "enum DisputeNFTMarket.Status",
              "name": "status",
              "type": "uint8"
            },
            {
              "internalType": "enum DisputeNFTMarket.Ruling",
              "name": "ruling",
              "type": "uint8"
            }
          ],
          "internalType": "struct DisputeNFTMarket.DisputeToken[]",
          "name": "",
          "type": "tuple[]"
        }
      ],
      "stateMutability": "view",
      "type": "function"
    },
    {
      "inputs": [],
      "name": "fetchResolvedNFT",
      "outputs": [
        {
          "components": [
            {
              "internalType": "uint256",
              "name": "itemId",
              "type": "uint256"
            },
            {
              "internalType": "address",
              "name": "nftContract",
              "type": "address"
            },
            {
              "internalType": "address",
              "name": "purchasedNFT",
              "type": "address"
            },
            {
              "internalType": "uint256",
              "name": "tokenId",
              "type": "uint256"
            },
            {
              "internalType": "address",
              "name": "seller",
              "type": "address"
            },
            {
              "internalType": "address",
              "name": "buyer",
              "type": "address"
            },
            {
              "internalType": "uint256",
              "name": "price",
              "type": "uint256"
            },
            {
              "internalType": "enum DisputeNFTMarket.Status",
              "name": "status",
              "type": "uint8"
            },
            {
              "internalType": "enum DisputeNFTMarket.Ruling",
              "name": "ruling",
              "type": "uint8"
            }
          ],
          "internalType": "struct DisputeNFTMarket.DisputeToken[]",
          "name": "",
          "type": "tuple[]"
        }
      ],
      "stateMutability": "view",
      "type": "function"
    },
    {
      "inputs": [
        {
          "internalType": "uint256",
          "name": "buyerOrSeller",
          "type": "uint256"
        }
      ],
      "name": "fetchResolvedNFTRefund",
      "outputs": [
        {
          "components": [
            {
              "internalType": "uint256",
              "name": "itemId",
              "type": "uint256"
            },
            {
              "internalType": "address",
              "name": "nftContract",
              "type": "address"
            },
            {
              "internalType": "address",
              "name": "purchasedNFT",
              "type": "address"
            },
            {
              "internalType": "uint256",
              "name": "tokenId",
              "type": "uint256"
            },
            {
              "internalType": "address",
              "name": "seller",
              "type": "address"
            },
            {
              "internalType": "address",
              "name": "buyer",
              "type": "address"
            },
            {
              "internalType": "uint256",
              "name": "price",
              "type": "uint256"
            },
            {
              "internalType": "enum DisputeNFTMarket.Status",
              "name": "status",
              "type": "uint8"
            },
            {
              "internalType": "enum DisputeNFTMarket.Ruling",
              "name": "ruling",
              "type": "uint8"
            }
          ],
          "internalType": "struct DisputeNFTMarket.DisputeToken[]",
          "name": "",
          "type": "tuple[]"
        }
      ],
      "stateMutability": "view",
      "type": "function"
    },
    {
      "inputs": [
        {
          "internalType": "uint256",
          "name": "itemId",
          "type": "uint256"
        }
      ],
      "name": "fetchRuling",
      "outputs": [
        {
          "internalType": "uint8",
          "name": "",
          "type": "uint8"
        }
      ],
      "stateMutability": "view",
      "type": "function"
    },
    {
      "inputs": [
        {
          "internalType": "uint256",
          "name": "",
          "type": "uint256"
        }
      ],
      "name": "idToDisputeToken",
      "outputs": [
        {
          "internalType": "uint256",
          "name": "itemId",
          "type": "uint256"
        },
        {
          "internalType": "address",
          "name": "nftContract",
          "type": "address"
        },
        {
          "internalType": "address",
          "name": "purchasedNFT",
          "type": "address"
        },
        {
          "internalType": "uint256",
          "name": "tokenId",
          "type": "uint256"
        },
        {
          "internalType": "address",
          "name": "seller",
          "type": "address"
        },
        {
          "internalType": "address",
          "name": "buyer",
          "type": "address"
        },
        {
          "internalType": "uint256",
          "name": "price",
          "type": "uint256"
        },
        {
          "internalType": "enum DisputeNFTMarket.Status",
          "name": "status",
          "type": "uint8"
        },
        {
          "internalType": "enum DisputeNFTMarket.Ruling",
          "name": "ruling",
          "type": "uint8"
        }
      ],
      "stateMutability": "view",
      "type": "function"
    },
    {
      "inputs": [
        {
          "internalType": "uint256",
          "name": "itemId",
          "type": "uint256"
        }
      ],
      "name": "jurorClaimReward",
      "outputs": [],
      "stateMutability": "nonpayable",
      "type": "function"
    },
    {
      "inputs": [
        {
          "internalType": "address",
          "name": "",
          "type": "address"
        },
        {
          "internalType": "uint256",
          "name": "",
          "type": "uint256"
        }
      ],
      "name": "jurorDisputeVote",
      "outputs": [
        {
          "internalType": "enum DisputeNFTMarket.JurorVote",
          "name": "",
          "type": "uint8"
        }
      ],
      "stateMutability": "view",
      "type": "function"
    },
    {
      "inputs": [
        {
          "internalType": "address",
          "name": "",
          "type": "address"
        },
        {
          "internalType": "uint256",
          "name": "",
          "type": "uint256"
        }
      ],
      "name": "jurorRewardClaimed",
      "outputs": [
        {
          "internalType": "bool",
          "name": "",
          "type": "bool"
        }
      ],
      "stateMutability": "view",
      "type": "function"
    },
    {
      "inputs": [
        {
          "internalType": "address",
          "name": "",
          "type": "address"
        },
        {
          "internalType": "uint256",
          "name": "",
          "type": "uint256"
        }
      ],
      "name": "jurorVoted",
      "outputs": [
        {
          "internalType": "bool",
          "name": "",
          "type": "bool"
        }
      ],
      "stateMutability": "view",
      "type": "function"
    },
    {
      "inputs": [
        {
          "internalType": "uint256",
          "name": "",
          "type": "uint256"
        }
      ],
      "name": "jurors",
      "outputs": [
        {
          "internalType": "address",
          "name": "",
          "type": "address"
        }
      ],
      "stateMutability": "view",
      "type": "function"
    },
    {
      "inputs": [
        {
          "internalType": "address",
          "name": "nftContract",
          "type": "address"
        },
        {
          "internalType": "address",
          "name": "purchasedNFT",
          "type": "address"
        },
        {
          "internalType": "uint256",
          "name": "tokenId",
          "type": "uint256"
        },
        {
          "internalType": "address",
          "name": "seller",
          "type": "address"
        },
        {
          "internalType": "uint256",
          "name": "price",
          "type": "uint256"
        }
      ],
      "name": "listDispute",
      "outputs": [],
      "stateMutability": "payable",
      "type": "function"
    },
    {
      "inputs": [],
      "name": "marketPlaceOwner",
      "outputs": [
        {
          "internalType": "address",
          "name": "",
          "type": "address"
        }
      ],
      "stateMutability": "view",
      "type": "function"
    },
    {
      "inputs": [
        {
          "internalType": "uint256",
          "name": "_arbitrationFee",
          "type": "uint256"
        }
      ],
      "name": "setArbitrationFee",
      "outputs": [],
      "stateMutability": "nonpayable",
      "type": "function"
    },
    {
      "inputs": [
        {
          "internalType": "address",
          "name": "",
          "type": "address"
        }
      ],
      "name": "verifyJurors",
      "outputs": [
        {
          "internalType": "bool",
          "name": "",
          "type": "bool"
        }
      ],
      "stateMutability": "view",
      "type": "function"
    },
    {
      "inputs": [
        {
          "internalType": "uint256",
          "name": "itemId",
          "type": "uint256"
        },
        {
          "internalType": "enum DisputeNFTMarket.JurorVote",
          "name": "_jurorVote",
          "type": "uint8"
        }
      ],
      "name": "vote",
      "outputs": [
        {
          "components": [
            {
              "internalType": "uint256",
              "name": "itemId",
              "type": "uint256"
            },
            {
              "internalType": "address",
              "name": "nftContract",
              "type": "address"
            },
            {
              "internalType": "address",
              "name": "purchasedNFT",
              "type": "address"
            },
            {
              "internalType": "uint256",
              "name": "tokenId",
              "type": "uint256"
            },
            {
              "internalType": "address",
              "name": "seller",
              "type": "address"
            },
            {
              "internalType": "address",
              "name": "buyer",
              "type": "address"
            },
            {
              "internalType": "uint256",
              "name": "price",
              "type": "uint256"
            },
            {
              "internalType": "enum DisputeNFTMarket.Status",
              "name": "status",
              "type": "uint8"
            },
            {
              "internalType": "enum DisputeNFTMarket.Ruling",
              "name": "ruling",
              "type": "uint8"
            }
          ],
          "internalType": "struct DisputeNFTMarket.DisputeToken",
          "name": "",
          "type": "tuple"
        }
      ],
      "stateMutability": "nonpayable",
      "type": "function"
    },
    {
      "inputs": [
        {
          "internalType": "uint256",
          "name": "",
          "type": "uint256"
        }
      ],
      "name": "voteBuyer",
      "outputs": [
        {
          "internalType": "uint256",
          "name": "",
          "type": "uint256"
        }
      ],
      "stateMutability": "view",
      "type": "function"
    },
    {
      "inputs": [
        {
          "internalType": "uint256",
          "name": "",
          "type": "uint256"
        }
      ],
      "name": "voteNumber",
      "outputs": [
        {
          "internalType": "uint256",
          "name": "",
          "type": "uint256"
        }
      ],
      "stateMutability": "view",
      "type": "function"
    }
  ],
  "bytecode": "0x6080604052662386f26fc100006006553480156200001c57600080fd5b50604051620053da380380620053da8339818101604052810190620000429190620000a9565b600160008190555080600560006101000a81548173ffffffffffffffffffffffffffffffffffffffff021916908373ffffffffffffffffffffffffffffffffffffffff1602179055505062000123565b600081519050620000a38162000109565b92915050565b600060208284031215620000bc57600080fd5b6000620000cc8482850162000092565b91505092915050565b6000620000e282620000e9565b9050919050565b600073ffffffffffffffffffffffffffffffffffffffff82169050919050565b6200011481620000d5565b81146200012057600080fd5b50565b6152a780620001336000396000f3fe6080604052600436106101405760003560e01c8063943e8216116100b6578063c84501d71161006f578063c84501d7146104a5578063ca6f5023146104e2578063d47b45d11461051f578063df02935c1461055c578063e1c2f2b614610585578063e33d149d146105c257610140565b8063943e82161461036557806397c37af5146103a25780639f226c2c146103cd578063a7fb17dc14610412578063c18763f71461044f578063c1d6c8621461047a57610140565b80635a282ebe116101085780635a282ebe146102405780635ea7b4fc1461027d57806371bd9c99146102a657806376450d3e146102cf5780637bc6f6881461030c5780637cd38ff81461032857610140565b8063049869c9146101455780630703e2c3146101705780630f163a0a146101ad578063116c93f4146101d8578063267c43e014610215575b600080fd5b34801561015157600080fd5b5061015a6105eb565b6040516101679190614c45565b60405180910390f35b34801561017c57600080fd5b50610197600480360381019061019291906144f1565b6105f1565b6040516101a49190614d4e565b60405180910390f35b3480156101b957600080fd5b506101c26107e6565b6040516101cf9190614a31565b60405180910390f35b3480156101e457600080fd5b506101ff60048036038101906101fa91906144f1565b610d44565b60405161020c9190614c45565b60405180910390f35b34801561022157600080fd5b5061022a610d5c565b6040516102379190614a31565b60405180910390f35b34801561024c57600080fd5b50610267600480360381019061026291906144b5565b6112ba565b6040516102749190614a6e565b60405180910390f35b34801561028957600080fd5b506102a4600480360381019061029f91906144f1565b6112e9565b005b3480156102b257600080fd5b506102cd60048036038101906102c89190614415565b61134d565b005b3480156102db57600080fd5b506102f660048036038101906102f191906144f1565b6114ae565b6040516103039190614a31565b60405180910390f35b6103266004803603810190610321919061443e565b611b9e565b005b34801561033457600080fd5b5061034f600480360381019061034a91906144f1565b612082565b60405161035c91906149df565b60405180910390f35b34801561037157600080fd5b5061038c6004803603810190610387919061451a565b6120c1565b6040516103999190614c29565b60405180910390f35b3480156103ae57600080fd5b506103b7612bf1565b6040516103c491906149df565b60405180910390f35b3480156103d957600080fd5b506103f460048036038101906103ef91906144f1565b612c17565b60405161040999989796959493929190614c60565b60405180910390f35b34801561041e57600080fd5b50610439600480360381019061043491906144f1565b612cff565b6040516104469190614c45565b60405180910390f35b34801561045b57600080fd5b50610464612d17565b6040516104719190614a31565b60405180910390f35b34801561048657600080fd5b5061048f613211565b60405161049c9190614a31565b60405180910390f35b3480156104b157600080fd5b506104cc60048036038101906104c79190614415565b61376d565b6040516104d99190614a53565b60405180910390f35b3480156104ee57600080fd5b50610509600480360381019061050491906144f1565b61378d565b6040516105169190614d4e565b60405180910390f35b34801561052b57600080fd5b50610546600480360381019061054191906144b5565b613982565b6040516105539190614a53565b60405180910390f35b34801561056857600080fd5b50610583600480360381019061057e91906144f1565b6139b1565b005b34801561059157600080fd5b506105ac60048036038101906105a791906144b5565b613b28565b6040516105b99190614a53565b60405180910390f35b3480156105ce57600080fd5b506105e960048036038101906105e491906144f1565b613b57565b005b60065481565b600080600281111561062c577f4e487b7100000000000000000000000000000000000000000000000000000000600052602160045260246000fd5b6008600084815260200190815260200160002060070160009054906101000a900460ff166002811115610688577f4e487b7100000000000000000000000000000000000000000000000000000000600052602160045260246000fd5b141561069757600090506107e1565b600160028111156106d1577f4e487b7100000000000000000000000000000000000000000000000000000000600052602160045260246000fd5b6008600084815260200190815260200160002060070160009054906101000a900460ff16600281111561072d577f4e487b7100000000000000000000000000000000000000000000000000000000600052602160045260246000fd5b141561073c57600190506107e1565b600280811115610775577f4e487b7100000000000000000000000000000000000000000000000000000000600052602160045260246000fd5b6008600084815260200190815260200160002060070160009054906101000a900460ff1660028111156107d1577f4e487b7100000000000000000000000000000000000000000000000000000000600052602160045260246000fd5b14156107e057600290506107e1565b5b919050565b606060006107f4600161429e565b905060008060005b838110156108cf576000600281111561083e577f4e487b7100000000000000000000000000000000000000000000000000000000600052602160045260246000fd5b6008600060018461084f9190614dbe565b815260200190815260200160002060070160009054906101000a900460ff1660028111156108a6577f4e487b7100000000000000000000000000000000000000000000000000000000600052602160045260246000fd5b14156108bc576001836108b99190614dbe565b92505b80806108c790614f09565b9150506107fc565b5060008267ffffffffffffffff811115610912577f4e487b7100000000000000000000000000000000000000000000000000000000600052604160045260246000fd5b60405190808252806020026020018201604052801561094b57816020015b6109386142c2565b8152602001906001900390816109305790505b50905060005b83811015610d395760006002811115610993577f4e487b7100000000000000000000000000000000000000000000000000000000600052602160045260246000fd5b600860006001846109a49190614dbe565b815260200190815260200160002060070160009054906101000a900460ff1660028111156109fb577f4e487b7100000000000000000000000000000000000000000000000000000000600052602160045260246000fd5b1415610d2657600060086000600184610a149190614dbe565b815260200190815260200160002060000154905060006008600083815260200190815260200160002090508060405180610120016040529081600082015481526020016001820160009054906101000a900473ffffffffffffffffffffffffffffffffffffffff1673ffffffffffffffffffffffffffffffffffffffff1673ffffffffffffffffffffffffffffffffffffffff1681526020016002820160009054906101000a900473ffffffffffffffffffffffffffffffffffffffff1673ffffffffffffffffffffffffffffffffffffffff1673ffffffffffffffffffffffffffffffffffffffff168152602001600382015481526020016004820160009054906101000a900473ffffffffffffffffffffffffffffffffffffffff1673ffffffffffffffffffffffffffffffffffffffff1673ffffffffffffffffffffffffffffffffffffffff1681526020016005820160009054906101000a900473ffffffffffffffffffffffffffffffffffffffff1673ffffffffffffffffffffffffffffffffffffffff1673ffffffffffffffffffffffffffffffffffffffff168152602001600682015481526020016007820160009054906101000a900460ff166002811115610c0d577f4e487b7100000000000000000000000000000000000000000000000000000000600052602160045260246000fd5b6002811115610c45577f4e487b7100000000000000000000000000000000000000000000000000000000600052602160045260246000fd5b81526020016007820160019054906101000a900460ff166002811115610c94577f4e487b7100000000000000000000000000000000000000000000000000000000600052602160045260246000fd5b6002811115610ccc577f4e487b7100000000000000000000000000000000000000000000000000000000600052602160045260246000fd5b81525050848681518110610d09577f4e487b7100000000000000000000000000000000000000000000000000000000600052603260045260246000fd5b6020026020010181905250600185610d219190614dbe565b945050505b8080610d3190614f09565b915050610951565b508094505050505090565b600d6020528060005260406000206000915090505481565b60606000610d6a600161429e565b905060008060005b83811015610e455760016002811115610db4577f4e487b7100000000000000000000000000000000000000000000000000000000600052602160045260246000fd5b60086000600184610dc59190614dbe565b815260200190815260200160002060070160009054906101000a900460ff166002811115610e1c577f4e487b7100000000000000000000000000000000000000000000000000000000600052602160045260246000fd5b1415610e3257600183610e2f9190614dbe565b92505b8080610e3d90614f09565b915050610d72565b5060008267ffffffffffffffff811115610e88577f4e487b7100000000000000000000000000000000000000000000000000000000600052604160045260246000fd5b604051908082528060200260200182016040528015610ec157816020015b610eae6142c2565b815260200190600190039081610ea65790505b50905060005b838110156112af5760016002811115610f09577f4e487b7100000000000000000000000000000000000000000000000000000000600052602160045260246000fd5b60086000600184610f1a9190614dbe565b815260200190815260200160002060070160009054906101000a900460ff166002811115610f71577f4e487b7100000000000000000000000000000000000000000000000000000000600052602160045260246000fd5b141561129c57600060086000600184610f8a9190614dbe565b815260200190815260200160002060000154905060006008600083815260200190815260200160002090508060405180610120016040529081600082015481526020016001820160009054906101000a900473ffffffffffffffffffffffffffffffffffffffff1673ffffffffffffffffffffffffffffffffffffffff1673ffffffffffffffffffffffffffffffffffffffff1681526020016002820160009054906101000a900473ffffffffffffffffffffffffffffffffffffffff1673ffffffffffffffffffffffffffffffffffffffff1673ffffffffffffffffffffffffffffffffffffffff168152602001600382015481526020016004820160009054906101000a900473ffffffffffffffffffffffffffffffffffffffff1673ffffffffffffffffffffffffffffffffffffffff1673ffffffffffffffffffffffffffffffffffffffff1681526020016005820160009054906101000a900473ffffffffffffffffffffffffffffffffffffffff1673ffffffffffffffffffffffffffffffffffffffff1673ffffffffffffffffffffffffffffffffffffffff168152602001600682015481526020016007820160009054906101000a900460ff166002811115611183577f4e487b7100000000000000000000000000000000000000000000000000000000600052602160045260246000fd5b60028111156111bb577f4e487b7100000000000000000000000000000000000000000000000000000000600052602160045260246000fd5b81526020016007820160019054906101000a900460ff16600281111561120a577f4e487b7100000000000000000000000000000000000000000000000000000000600052602160045260246000fd5b6002811115611242577f4e487b7100000000000000000000000000000000000000000000000000000000600052602160045260246000fd5b8152505084868151811061127f577f4e487b7100000000000000000000000000000000000000000000000000000000600052603260045260246000fd5b60200260200101819052506001856112979190614dbe565b945050505b80806112a790614f09565b915050610ec7565b508094505050505090565b600a6020528160005260406000206020528060005260406000206000915091509054906101000a900460ff1681565b600560009054906101000a900473ffffffffffffffffffffffffffffffffffffffff1673ffffffffffffffffffffffffffffffffffffffff163373ffffffffffffffffffffffffffffffffffffffff161461134357600080fd5b8060068190555050565b600560009054906101000a900473ffffffffffffffffffffffffffffffffffffffff1673ffffffffffffffffffffffffffffffffffffffff163373ffffffffffffffffffffffffffffffffffffffff16146113a757600080fd5b600360048054905011156113f0576040517f08c379a00000000000000000000000000000000000000000000000000000000081526004016113e790614a89565b60405180910390fd5b6001600960008373ffffffffffffffffffffffffffffffffffffffff1673ffffffffffffffffffffffffffffffffffffffff16815260200190815260200160002060006101000a81548160ff0219169083151502179055506004819080600181540180825580915050600190039060005260206000200160009091909190916101000a81548173ffffffffffffffffffffffffffffffffffffffff021916908373ffffffffffffffffffffffffffffffffffffffff16021790555050565b606060006114bc600161429e565b905060008060005b8381101561175957600086141561160b573373ffffffffffffffffffffffffffffffffffffffff16600860006001846114fd9190614dbe565b815260200190815260200160002060050160009054906101000a900473ffffffffffffffffffffffffffffffffffffffff1673ffffffffffffffffffffffffffffffffffffffff161480156115f1575060016002811115611587577f4e487b7100000000000000000000000000000000000000000000000000000000600052602160045260246000fd5b600860006001846115989190614dbe565b815260200190815260200160002060070160019054906101000a900460ff1660028111156115ef577f4e487b7100000000000000000000000000000000000000000000000000000000600052602160045260246000fd5b145b15611606576001836116039190614dbe565b92505b611746565b6001861415611745573373ffffffffffffffffffffffffffffffffffffffff166008600060018461163c9190614dbe565b815260200190815260200160002060040160009054906101000a900473ffffffffffffffffffffffffffffffffffffffff1673ffffffffffffffffffffffffffffffffffffffff1614801561172f57506002808111156116c5577f4e487b7100000000000000000000000000000000000000000000000000000000600052602160045260246000fd5b600860006001846116d69190614dbe565b815260200190815260200160002060070160019054906101000a900460ff16600281111561172d577f4e487b7100000000000000000000000000000000000000000000000000000000600052602160045260246000fd5b145b15611744576001836117419190614dbe565b92505b5b5b808061175190614f09565b9150506114c4565b5060008267ffffffffffffffff81111561179c577f4e487b7100000000000000000000000000000000000000000000000000000000600052604160045260246000fd5b6040519080825280602002602001820160405280156117d557816020015b6117c26142c2565b8152602001906001900390816117ba5790505b50905060005b83811015611b91573373ffffffffffffffffffffffffffffffffffffffff166008600060018461180b9190614dbe565b815260200190815260200160002060050160009054906101000a900473ffffffffffffffffffffffffffffffffffffffff1673ffffffffffffffffffffffffffffffffffffffff161415611b7e5760006008600060018461186c9190614dbe565b815260200190815260200160002060000154905060006008600083815260200190815260200160002090508060405180610120016040529081600082015481526020016001820160009054906101000a900473ffffffffffffffffffffffffffffffffffffffff1673ffffffffffffffffffffffffffffffffffffffff1673ffffffffffffffffffffffffffffffffffffffff1681526020016002820160009054906101000a900473ffffffffffffffffffffffffffffffffffffffff1673ffffffffffffffffffffffffffffffffffffffff1673ffffffffffffffffffffffffffffffffffffffff168152602001600382015481526020016004820160009054906101000a900473ffffffffffffffffffffffffffffffffffffffff1673ffffffffffffffffffffffffffffffffffffffff1673ffffffffffffffffffffffffffffffffffffffff1681526020016005820160009054906101000a900473ffffffffffffffffffffffffffffffffffffffff1673ffffffffffffffffffffffffffffffffffffffff1673ffffffffffffffffffffffffffffffffffffffff168152602001600682015481526020016007820160009054906101000a900460ff166002811115611a65577f4e487b7100000000000000000000000000000000000000000000000000000000600052602160045260246000fd5b6002811115611a9d577f4e487b7100000000000000000000000000000000000000000000000000000000600052602160045260246000fd5b81526020016007820160019054906101000a900460ff166002811115611aec577f4e487b7100000000000000000000000000000000000000000000000000000000600052602160045260246000fd5b6002811115611b24577f4e487b7100000000000000000000000000000000000000000000000000000000600052602160045260246000fd5b81525050848681518110611b61577f4e487b7100000000000000000000000000000000000000000000000000000000600052603260045260246000fd5b6020026020010181905250600185611b799190614dbe565b945050505b8080611b8990614f09565b9150506117db565b5080945050505050919050565b60026000541415611be4576040517f08c379a0000000000000000000000000000000000000000000000000000000008152600401611bdb90614be9565b60405180910390fd5b600260008190555060008111611c2f576040517f08c379a0000000000000000000000000000000000000000000000000000000008152600401611c2690614aa9565b60405180910390fd5b6006543414611c73576040517f08c379a0000000000000000000000000000000000000000000000000000000008152600401611c6a90614bc9565b60405180910390fd5b611c7d60016142ac565b6000611c89600161429e565b90506040518061012001604052808281526020018773ffffffffffffffffffffffffffffffffffffffff1681526020018673ffffffffffffffffffffffffffffffffffffffff1681526020018581526020018473ffffffffffffffffffffffffffffffffffffffff1681526020013373ffffffffffffffffffffffffffffffffffffffff16815260200183815260200160006002811115611d53577f4e487b7100000000000000000000000000000000000000000000000000000000600052602160045260246000fd5b815260200160006002811115611d92577f4e487b7100000000000000000000000000000000000000000000000000000000600052602160045260246000fd5b815250600860008381526020019081526020016000206000820151816000015560208201518160010160006101000a81548173ffffffffffffffffffffffffffffffffffffffff021916908373ffffffffffffffffffffffffffffffffffffffff16021790555060408201518160020160006101000a81548173ffffffffffffffffffffffffffffffffffffffff021916908373ffffffffffffffffffffffffffffffffffffffff1602179055506060820151816003015560808201518160040160006101000a81548173ffffffffffffffffffffffffffffffffffffffff021916908373ffffffffffffffffffffffffffffffffffffffff16021790555060a08201518160050160006101000a81548173ffffffffffffffffffffffffffffffffffffffff021916908373ffffffffffffffffffffffffffffffffffffffff16021790555060c0820151816006015560e08201518160070160006101000a81548160ff02191690836002811115611f33577f4e487b7100000000000000000000000000000000000000000000000000000000600052602160045260246000fd5b02179055506101008201518160070160016101000a81548160ff02191690836002811115611f8a577f4e487b7100000000000000000000000000000000000000000000000000000000600052602160045260246000fd5b02179055509050508573ffffffffffffffffffffffffffffffffffffffff166323b872dd3330876040518463ffffffff1660e01b8152600401611fcf939291906149fa565b600060405180830381600087803b158015611fe957600080fd5b505af1158015611ffd573d6000803e3d6000fd5b505050508473ffffffffffffffffffffffffffffffffffffffff168673ffffffffffffffffffffffffffffffffffffffff16827fe96f4db9961b1cbd249829261e578472902adbcd788541072e6355ae398f1f7b8787338860008060405161206a96959493929190614ced565b60405180910390a45060016000819055505050505050565b6004818154811061209257600080fd5b906000526020600020016000915054906101000a900473ffffffffffffffffffffffffffffffffffffffff1681565b6120c96142c2565b600960003373ffffffffffffffffffffffffffffffffffffffff1673ffffffffffffffffffffffffffffffffffffffff16815260200190815260200160002060009054906101000a900460ff16612155576040517f08c379a000000000000000000000000000000000000000000000000000000000815260040161214c90614ac9565b60405180910390fd5b6000600281111561218f577f4e487b7100000000000000000000000000000000000000000000000000000000600052602160045260246000fd5b6008600085815260200190815260200160002060070160009054906101000a900460ff1660028111156121eb577f4e487b7100000000000000000000000000000000000000000000000000000000600052602160045260246000fd5b1461222b576040517f08c379a000000000000000000000000000000000000000000000000000000000815260040161222290614ae9565b60405180910390fd5b600c60003373ffffffffffffffffffffffffffffffffffffffff1673ffffffffffffffffffffffffffffffffffffffff168152602001908152602001600020600084815260200190815260200160002060009054906101000a900460ff16156122c9576040517f08c379a00000000000000000000000000000000000000000000000000000000081526004016122c090614b89565b60405180910390fd5b60006001811115612303577f4e487b7100000000000000000000000000000000000000000000000000000000600052602160045260246000fd5b82600181111561233c577f4e487b7100000000000000000000000000000000000000000000000000000000600052602160045260246000fd5b14806123b7575060018081111561237c577f4e487b7100000000000000000000000000000000000000000000000000000000600052602160045260246000fd5b8260018111156123b5577f4e487b7100000000000000000000000000000000000000000000000000000000600052602160045260246000fd5b145b6123f6576040517f08c379a00000000000000000000000000000000000000000000000000000000081526004016123ed90614ba9565b60405180910390fd5b6003600d6000858152602001908152602001600020541061244c576040517f08c379a000000000000000000000000000000000000000000000000000000000815260040161244390614b69565b60405180910390fd5b81600a60003373ffffffffffffffffffffffffffffffffffffffff1673ffffffffffffffffffffffffffffffffffffffff168152602001908152602001600020600085815260200190815260200160002060006101000a81548160ff021916908360018111156124e5577f4e487b7100000000000000000000000000000000000000000000000000000000600052602160045260246000fd5b02179055506001600c60003373ffffffffffffffffffffffffffffffffffffffff1673ffffffffffffffffffffffffffffffffffffffff168152602001908152602001600020600085815260200190815260200160002060006101000a81548160ff021916908315150217905550600d6000848152602001908152602001600020600081548092919061257790614f09565b9190505550600060018111156125b6577f4e487b7100000000000000000000000000000000000000000000000000000000600052602160045260246000fd5b8260018111156125ef577f4e487b7100000000000000000000000000000000000000000000000000000000600052602160045260246000fd5b141561261f57600e6000848152602001908152602001600020600081548092919061261990614f09565b91905055505b6003600d600085815260200190815260200160002054141561278c576002600e600085815260200190815260200160002054106126c05760016008600085815260200190815260200160002060070160016101000a81548160ff021916908360028111156126b6577f4e487b7100000000000000000000000000000000000000000000000000000000600052602160045260246000fd5b0217905550612726565b60026008600085815260200190815260200160002060070160016101000a81548160ff02191690836002811115612720577f4e487b7100000000000000000000000000000000000000000000000000000000600052602160045260246000fd5b02179055505b60016008600085815260200190815260200160002060070160006101000a81548160ff02191690836002811115612786577f4e487b7100000000000000000000000000000000000000000000000000000000600052602160045260246000fd5b02179055505b6008600084815260200190815260200160002060020160009054906101000a900473ffffffffffffffffffffffffffffffffffffffff1673ffffffffffffffffffffffffffffffffffffffff166008600085815260200190815260200160002060010160009054906101000a900473ffffffffffffffffffffffffffffffffffffffff1673ffffffffffffffffffffffffffffffffffffffff16847f48bafb230831d59e9ff72dba9e8c1950d7bed001cb268076221d87d6f137a24960086000888152602001908152602001600020600301546008600089815260200190815260200160002060040160009054906101000a900473ffffffffffffffffffffffffffffffffffffffff16600860008a815260200190815260200160002060050160009054906101000a900473ffffffffffffffffffffffffffffffffffffffff16600860008b815260200190815260200160002060060154600860008c815260200190815260200160002060070160009054906101000a900460ff16600860008d815260200190815260200160002060070160019054906101000a900460ff1660405161293e96959493929190614ced565b60405180910390a46008600084815260200190815260200160002060405180610120016040529081600082015481526020016001820160009054906101000a900473ffffffffffffffffffffffffffffffffffffffff1673ffffffffffffffffffffffffffffffffffffffff1673ffffffffffffffffffffffffffffffffffffffff1681526020016002820160009054906101000a900473ffffffffffffffffffffffffffffffffffffffff1673ffffffffffffffffffffffffffffffffffffffff1673ffffffffffffffffffffffffffffffffffffffff168152602001600382015481526020016004820160009054906101000a900473ffffffffffffffffffffffffffffffffffffffff1673ffffffffffffffffffffffffffffffffffffffff1673ffffffffffffffffffffffffffffffffffffffff1681526020016005820160009054906101000a900473ffffffffffffffffffffffffffffffffffffffff1673ffffffffffffffffffffffffffffffffffffffff1673ffffffffffffffffffffffffffffffffffffffff168152602001600682015481526020016007820160009054906101000a900460ff166002811115612b26577f4e487b7100000000000000000000000000000000000000000000000000000000600052602160045260246000fd5b6002811115612b5e577f4e487b7100000000000000000000000000000000000000000000000000000000600052602160045260246000fd5b81526020016007820160019054906101000a900460ff166002811115612bad577f4e487b7100000000000000000000000000000000000000000000000000000000600052602160045260246000fd5b6002811115612be5577f4e487b7100000000000000000000000000000000000000000000000000000000600052602160045260246000fd5b81525050905092915050565b600560009054906101000a900473ffffffffffffffffffffffffffffffffffffffff1681565b60086020528060005260406000206000915090508060000154908060010160009054906101000a900473ffffffffffffffffffffffffffffffffffffffff16908060020160009054906101000a900473ffffffffffffffffffffffffffffffffffffffff16908060030154908060040160009054906101000a900473ffffffffffffffffffffffffffffffffffffffff16908060050160009054906101000a900473ffffffffffffffffffffffffffffffffffffffff16908060060154908060070160009054906101000a900460ff16908060070160019054906101000a900460ff16905089565b600e6020528060005260406000206000915090505481565b60606000612d25600161429e565b905060008060005b83811015612dce573373ffffffffffffffffffffffffffffffffffffffff1660086000600184612d5d9190614dbe565b815260200190815260200160002060050160009054906101000a900473ffffffffffffffffffffffffffffffffffffffff1673ffffffffffffffffffffffffffffffffffffffff161415612dbb57600183612db89190614dbe565b92505b8080612dc690614f09565b915050612d2d565b5060008267ffffffffffffffff811115612e11577f4e487b7100000000000000000000000000000000000000000000000000000000600052604160045260246000fd5b604051908082528060200260200182016040528015612e4a57816020015b612e376142c2565b815260200190600190039081612e2f5790505b50905060005b83811015613206573373ffffffffffffffffffffffffffffffffffffffff1660086000600184612e809190614dbe565b815260200190815260200160002060050160009054906101000a900473ffffffffffffffffffffffffffffffffffffffff1673ffffffffffffffffffffffffffffffffffffffff1614156131f357600060086000600184612ee19190614dbe565b815260200190815260200160002060000154905060006008600083815260200190815260200160002090508060405180610120016040529081600082015481526020016001820160009054906101000a900473ffffffffffffffffffffffffffffffffffffffff1673ffffffffffffffffffffffffffffffffffffffff1673ffffffffffffffffffffffffffffffffffffffff1681526020016002820160009054906101000a900473ffffffffffffffffffffffffffffffffffffffff1673ffffffffffffffffffffffffffffffffffffffff1673ffffffffffffffffffffffffffffffffffffffff168152602001600382015481526020016004820160009054906101000a900473ffffffffffffffffffffffffffffffffffffffff1673ffffffffffffffffffffffffffffffffffffffff1673ffffffffffffffffffffffffffffffffffffffff1681526020016005820160009054906101000a900473ffffffffffffffffffffffffffffffffffffffff1673ffffffffffffffffffffffffffffffffffffffff1673ffffffffffffffffffffffffffffffffffffffff168152602001600682015481526020016007820160009054906101000a900460ff1660028111156130da577f4e487b7100000000000000000000000000000000000000000000000000000000600052602160045260246000fd5b6002811115613112577f4e487b7100000000000000000000000000000000000000000000000000000000600052602160045260246000fd5b81526020016007820160019054906101000a900460ff166002811115613161577f4e487b7100000000000000000000000000000000000000000000000000000000600052602160045260246000fd5b6002811115613199577f4e487b7100000000000000000000000000000000000000000000000000000000600052602160045260246000fd5b815250508486815181106131d6577f4e487b7100000000000000000000000000000000000000000000000000000000600052603260045260246000fd5b60200260200101819052506001856131ee9190614dbe565b945050505b80806131fe90614f09565b915050612e50565b508094505050505090565b6060600061321f600161429e565b905060008060005b838110156132f957600280811115613268577f4e487b7100000000000000000000000000000000000000000000000000000000600052602160045260246000fd5b600860006001846132799190614dbe565b815260200190815260200160002060070160009054906101000a900460ff1660028111156132d0577f4e487b7100000000000000000000000000000000000000000000000000000000600052602160045260246000fd5b14156132e6576001836132e39190614dbe565b92505b80806132f190614f09565b915050613227565b5060008267ffffffffffffffff81111561333c577f4e487b7100000000000000000000000000000000000000000000000000000000600052604160045260246000fd5b60405190808252806020026020018201604052801561337557816020015b6133626142c2565b81526020019060019003908161335a5790505b50905060005b83811015613762576002808111156133bc577f4e487b7100000000000000000000000000000000000000000000000000000000600052602160045260246000fd5b600860006001846133cd9190614dbe565b815260200190815260200160002060070160009054906101000a900460ff166002811115613424577f4e487b7100000000000000000000000000000000000000000000000000000000600052602160045260246000fd5b141561374f5760006008600060018461343d9190614dbe565b815260200190815260200160002060000154905060006008600083815260200190815260200160002090508060405180610120016040529081600082015481526020016001820160009054906101000a900473ffffffffffffffffffffffffffffffffffffffff1673ffffffffffffffffffffffffffffffffffffffff1673ffffffffffffffffffffffffffffffffffffffff1681526020016002820160009054906101000a900473ffffffffffffffffffffffffffffffffffffffff1673ffffffffffffffffffffffffffffffffffffffff1673ffffffffffffffffffffffffffffffffffffffff168152602001600382015481526020016004820160009054906101000a900473ffffffffffffffffffffffffffffffffffffffff1673ffffffffffffffffffffffffffffffffffffffff1673ffffffffffffffffffffffffffffffffffffffff1681526020016005820160009054906101000a900473ffffffffffffffffffffffffffffffffffffffff1673ffffffffffffffffffffffffffffffffffffffff1673ffffffffffffffffffffffffffffffffffffffff168152602001600682015481526020016007820160009054906101000a900460ff166002811115613636577f4e487b7100000000000000000000000000000000000000000000000000000000600052602160045260246000fd5b600281111561366e577f4e487b7100000000000000000000000000000000000000000000000000000000600052602160045260246000fd5b81526020016007820160019054906101000a900460ff1660028111156136bd577f4e487b7100000000000000000000000000000000000000000000000000000000600052602160045260246000fd5b60028111156136f5577f4e487b7100000000000000000000000000000000000000000000000000000000600052602160045260246000fd5b81525050848681518110613732577f4e487b7100000000000000000000000000000000000000000000000000000000600052603260045260246000fd5b602002602001018190525060018561374a9190614dbe565b945050505b808061375a90614f09565b91505061337b565b508094505050505090565b60096020528060005260406000206000915054906101000a900460ff1681565b60008060028111156137c8577f4e487b7100000000000000000000000000000000000000000000000000000000600052602160045260246000fd5b6008600084815260200190815260200160002060070160019054906101000a900460ff166002811115613824577f4e487b7100000000000000000000000000000000000000000000000000000000600052602160045260246000fd5b1415613833576000905061397d565b6001600281111561386d577f4e487b7100000000000000000000000000000000000000000000000000000000600052602160045260246000fd5b6008600084815260200190815260200160002060070160019054906101000a900460ff1660028111156138c9577f4e487b7100000000000000000000000000000000000000000000000000000000600052602160045260246000fd5b14156138d8576001905061397d565b600280811115613911577f4e487b7100000000000000000000000000000000000000000000000000000000600052602160045260246000fd5b6008600084815260200190815260200160002060070160019054906101000a900460ff16600281111561396d577f4e487b7100000000000000000000000000000000000000000000000000000000600052602160045260246000fd5b141561397c576002905061397d565b5b919050565b600c6020528160005260406000206020528060005260406000206000915091509054906101000a900460ff1681565b600060028111156139eb577f4e487b7100000000000000000000000000000000000000000000000000000000600052602160045260246000fd5b6008600083815260200190815260200160002060070160009054906101000a900460ff166002811115613a47577f4e487b7100000000000000000000000000000000000000000000000000000000600052602160045260246000fd5b14613a5157600080fd5b60026008600083815260200190815260200160002060070160006101000a81548160ff02191690836002811115613ab1577f4e487b7100000000000000000000000000000000000000000000000000000000600052602160045260246000fd5b021790555060026008600083815260200190815260200160002060070160016101000a81548160ff02191690836002811115613b16577f4e487b7100000000000000000000000000000000000000000000000000000000600052602160045260246000fd5b0217905550613b2560026142ac565b50565b600b6020528160005260406000206020528060005260406000206000915091509054906101000a900460ff1681565b60016002811115613b91577f4e487b7100000000000000000000000000000000000000000000000000000000600052602160045260246000fd5b6008600083815260200190815260200160002060070160009054906101000a900460ff166002811115613bed577f4e487b7100000000000000000000000000000000000000000000000000000000600052602160045260246000fd5b14613c2d576040517f08c379a0000000000000000000000000000000000000000000000000000000008152600401613c2490614b49565b60405180910390fd5b600c60003373ffffffffffffffffffffffffffffffffffffffff1673ffffffffffffffffffffffffffffffffffffffff168152602001908152602001600020600082815260200190815260200160002060009054906101000a900460ff16613cca576040517f08c379a0000000000000000000000000000000000000000000000000000000008152600401613cc190614b09565b60405180910390fd5b600b60003373ffffffffffffffffffffffffffffffffffffffff1673ffffffffffffffffffffffffffffffffffffffff168152602001908152602001600020600082815260200190815260200160002060009054906101000a900460ff1615613d68576040517f08c379a0000000000000000000000000000000000000000000000000000000008152600401613d5f90614c09565b60405180910390fd5b60016002811115613da2577f4e487b7100000000000000000000000000000000000000000000000000000000600052602160045260246000fd5b6008600083815260200190815260200160002060070160019054906101000a900460ff166002811115613dfe577f4e487b7100000000000000000000000000000000000000000000000000000000600052602160045260246000fd5b14156140045760006001811115613e3e577f4e487b7100000000000000000000000000000000000000000000000000000000600052602160045260246000fd5b600a60003373ffffffffffffffffffffffffffffffffffffffff1673ffffffffffffffffffffffffffffffffffffffff168152602001908152602001600020600083815260200190815260200160002060009054906101000a900460ff166001811115613ed4577f4e487b7100000000000000000000000000000000000000000000000000000000600052602160045260246000fd5b1415613fff576001600b60003373ffffffffffffffffffffffffffffffffffffffff1673ffffffffffffffffffffffffffffffffffffffff168152602001908152602001600020600083815260200190815260200160002060006101000a81548160ff02191690831515021790555060003373ffffffffffffffffffffffffffffffffffffffff166003600654613f6b9190614e14565b604051613f77906149ca565b60006040518083038185875af1925050503d8060008114613fb4576040519150601f19603f3d011682016040523d82523d6000602084013e613fb9565b606091505b5050905080613ffd576040517f08c379a0000000000000000000000000000000000000000000000000000000008152600401613ff490614b29565b60405180910390fd5b505b61429b565b60028081111561403d577f4e487b7100000000000000000000000000000000000000000000000000000000600052602160045260246000fd5b6008600083815260200190815260200160002060070160019054906101000a900460ff166002811115614099577f4e487b7100000000000000000000000000000000000000000000000000000000600052602160045260246000fd5b141561429a576001808111156140d8577f4e487b7100000000000000000000000000000000000000000000000000000000600052602160045260246000fd5b600a60003373ffffffffffffffffffffffffffffffffffffffff1673ffffffffffffffffffffffffffffffffffffffff168152602001908152602001600020600083815260200190815260200160002060009054906101000a900460ff16600181111561416e577f4e487b7100000000000000000000000000000000000000000000000000000000600052602160045260246000fd5b1415614299576001600b60003373ffffffffffffffffffffffffffffffffffffffff1673ffffffffffffffffffffffffffffffffffffffff168152602001908152602001600020600083815260200190815260200160002060006101000a81548160ff02191690831515021790555060003373ffffffffffffffffffffffffffffffffffffffff1660036006546142059190614e14565b604051614211906149ca565b60006040518083038185875af1925050503d806000811461424e576040519150601f19603f3d011682016040523d82523d6000602084013e614253565b606091505b5050905080614297576040517f08c379a000000000000000000000000000000000000000000000000000000000815260040161428e90614b29565b60405180910390fd5b505b5b5b50565b600081600001549050919050565b6001816000016000828254019250508190555050565b60405180610120016040528060008152602001600073ffffffffffffffffffffffffffffffffffffffff168152602001600073ffffffffffffffffffffffffffffffffffffffff16815260200160008152602001600073ffffffffffffffffffffffffffffffffffffffff168152602001600073ffffffffffffffffffffffffffffffffffffffff1681526020016000815260200160006002811115614391577f4e487b7100000000000000000000000000000000000000000000000000000000600052602160045260246000fd5b8152602001600060028111156143d0577f4e487b7100000000000000000000000000000000000000000000000000000000600052602160045260246000fd5b81525090565b6000813590506143e581615233565b92915050565b6000813590506143fa8161524a565b92915050565b60008135905061440f8161525a565b92915050565b60006020828403121561442757600080fd5b6000614435848285016143d6565b91505092915050565b600080600080600060a0868803121561445657600080fd5b6000614464888289016143d6565b9550506020614475888289016143d6565b945050604061448688828901614400565b9350506060614497888289016143d6565b92505060806144a888828901614400565b9150509295509295909350565b600080604083850312156144c857600080fd5b60006144d6858286016143d6565b92505060206144e785828601614400565b9150509250929050565b60006020828403121561450357600080fd5b600061451184828501614400565b91505092915050565b6000806040838503121561452d57600080fd5b600061453b85828601614400565b925050602061454c858286016143eb565b9150509250929050565b6000614562838361482f565b6101208301905092915050565b61457881614e45565b82525050565b61458781614e45565b82525050565b600061459882614d79565b6145a28185614d91565b93506145ad83614d69565b8060005b838110156145de5781516145c58882614556565b97506145d083614d84565b9250506001810190506145b1565b5085935050505092915050565b6145f481614e57565b82525050565b61460381614ed3565b82525050565b61461281614ee5565b82525050565b61462181614ee5565b82525050565b61463081614ef7565b82525050565b61463f81614ef7565b82525050565b6000614652601583614dad565b915061465d82614fdf565b602082019050919050565b6000614675600d83614dad565b915061468082615008565b602082019050919050565b6000614698601283614dad565b91506146a382615031565b602082019050919050565b60006146bb601783614dad565b91506146c68261505a565b602082019050919050565b60006146de601383614dad565b91506146e982615083565b602082019050919050565b6000614701600f83614dad565b915061470c826150ac565b602082019050919050565b6000614724601183614dad565b915061472f826150d5565b602082019050919050565b6000614747601583614dad565b9150614752826150fe565b602082019050919050565b600061476a600083614da2565b915061477582615127565b600082019050919050565b600061478d601383614dad565b91506147988261512a565b602082019050919050565b60006147b0600e83614dad565b91506147bb82615153565b602082019050919050565b60006147d3601083614dad565b91506147de8261517c565b602082019050919050565b60006147f6601f83614dad565b9150614801826151a5565b602082019050919050565b6000614819600f83614dad565b9150614824826151ce565b602082019050919050565b61012082016000820151614846600085018261499d565b506020820151614859602085018261456f565b50604082015161486c604085018261456f565b50606082015161487f606085018261499d565b506080820151614892608085018261456f565b5060a08201516148a560a085018261456f565b5060c08201516148b860c085018261499d565b5060e08201516148cb60e0850182614627565b506101008201516148e0610100850182614609565b50505050565b610120820160008201516148fd600085018261499d565b506020820151614910602085018261456f565b506040820151614923604085018261456f565b506060820151614936606085018261499d565b506080820151614949608085018261456f565b5060a082015161495c60a085018261456f565b5060c082015161496f60c085018261499d565b5060e082015161498260e0850182614627565b50610100820151614997610100850182614609565b50505050565b6149a681614ebc565b82525050565b6149b581614ebc565b82525050565b6149c481614ec6565b82525050565b60006149d58261475d565b9150819050919050565b60006020820190506149f4600083018461457e565b92915050565b6000606082019050614a0f600083018661457e565b614a1c602083018561457e565b614a2960408301846149ac565b949350505050565b60006020820190508181036000830152614a4b818461458d565b905092915050565b6000602082019050614a6860008301846145eb565b92915050565b6000602082019050614a8360008301846145fa565b92915050565b60006020820190508181036000830152614aa281614645565b9050919050565b60006020820190508181036000830152614ac281614668565b9050919050565b60006020820190508181036000830152614ae28161468b565b9050919050565b60006020820190508181036000830152614b02816146ae565b9050919050565b60006020820190508181036000830152614b22816146d1565b9050919050565b60006020820190508181036000830152614b42816146f4565b9050919050565b60006020820190508181036000830152614b6281614717565b9050919050565b60006020820190508181036000830152614b828161473a565b9050919050565b60006020820190508181036000830152614ba281614780565b9050919050565b60006020820190508181036000830152614bc2816147a3565b9050919050565b60006020820190508181036000830152614be2816147c6565b9050919050565b60006020820190508181036000830152614c02816147e9565b9050919050565b60006020820190508181036000830152614c228161480c565b9050919050565b600061012082019050614c3f60008301846148e6565b92915050565b6000602082019050614c5a60008301846149ac565b92915050565b600061012082019050614c76600083018c6149ac565b614c83602083018b61457e565b614c90604083018a61457e565b614c9d60608301896149ac565b614caa608083018861457e565b614cb760a083018761457e565b614cc460c08301866149ac565b614cd160e0830185614636565b614cdf610100830184614618565b9a9950505050505050505050565b600060c082019050614d0260008301896149ac565b614d0f602083018861457e565b614d1c604083018761457e565b614d2960608301866149ac565b614d366080830185614636565b614d4360a0830184614618565b979650505050505050565b6000602082019050614d6360008301846149bb565b92915050565b6000819050602082019050919050565b600081519050919050565b6000602082019050919050565b600082825260208201905092915050565b600081905092915050565b600082825260208201905092915050565b6000614dc982614ebc565b9150614dd483614ebc565b9250827fffffffffffffffffffffffffffffffffffffffffffffffffffffffffffffffff03821115614e0957614e08614f52565b5b828201905092915050565b6000614e1f82614ebc565b9150614e2a83614ebc565b925082614e3a57614e39614f81565b5b828204905092915050565b6000614e5082614e9c565b9050919050565b60008115159050919050565b6000819050614e71826151f7565b919050565b6000819050614e848261520b565b919050565b6000819050614e978261521f565b919050565b600073ffffffffffffffffffffffffffffffffffffffff82169050919050565b6000819050919050565b600060ff82169050919050565b6000614ede82614e63565b9050919050565b6000614ef082614e76565b9050919050565b6000614f0282614e89565b9050919050565b6000614f1482614ebc565b91507fffffffffffffffffffffffffffffffffffffffffffffffffffffffffffffffff821415614f4757614f46614f52565b5b600182019050919050565b7f4e487b7100000000000000000000000000000000000000000000000000000000600052601160045260246000fd5b7f4e487b7100000000000000000000000000000000000000000000000000000000600052601260045260246000fd5b7f4e487b7100000000000000000000000000000000000000000000000000000000600052602160045260246000fd5b7f4a55524f525f4e554d4245525f45584345454445440000000000000000000000600082015250565b7f494e56414c49445f505249434500000000000000000000000000000000000000600082015250565b7f4e4f545f56455249464945445f4a55524f520000000000000000000000000000600082015250565b7f4e4f545f454c494749424c455f464f525f564f54494e47000000000000000000600082015250565b7f4a55524f525f4e4f545f564f5445445f59455400000000000000000000000000600082015250565b7f5452414e534645525f4641494c45440000000000000000000000000000000000600082015250565b7f434153455f4e4f545f5245534f4c564544000000000000000000000000000000600082015250565b7f444953505554455f414c52454144595f564f5445440000000000000000000000600082015250565b50565b7f4a55524f525f414c52454144595f564f54454400000000000000000000000000600082015250565b7f4e4f545f56414c49445f564f5445000000000000000000000000000000000000600082015250565b7f5041594d454e545f4e4f545f4d41444500000000000000000000000000000000600082015250565b7f5265656e7472616e637947756172643a207265656e7472616e742063616c6c00600082015250565b7f414c52454144595f434c41494d45440000000000000000000000000000000000600082015250565b6002811061520857615207614fb0565b5b50565b6003811061521c5761521b614fb0565b5b50565b600381106152305761522f614fb0565b5b50565b61523c81614e45565b811461524757600080fd5b50565b6002811061525757600080fd5b50565b61526381614ebc565b811461526e57600080fd5b5056fea2646970667358221220884b2617576f7e4a68740108e4f32a8ed445518390a0fb1191f3896c03d95ebd64736f6c63430008040033",
  "linkReferences": {},
  "deployedLinkReferences": {}
}