{
  "_format": "hh-sol-artifact-1",
  "contractName": "DisputeNFTMarket",
  "sourceName": "contracts/DisputeNFTMarket.sol",
  "abi": [
    {
      "inputs": [
        {
          "internalType": "address",
          "name": "_marketPlaceOwner",
          "type": "address"
        }
      ],
      "stateMutability": "nonpayable",
      "type": "constructor"
    },
    {
      "anonymous": false,
      "inputs": [
        {
          "indexed": true,
          "internalType": "uint256",
          "name": "itemId",
          "type": "uint256"
        },
        {
          "indexed": true,
          "internalType": "address",
          "name": "nftContract",
          "type": "address"
        },
        {
          "indexed": true,
          "internalType": "address",
          "name": "purchasedNFT",
          "type": "address"
        },
        {
          "indexed": false,
          "internalType": "uint256",
          "name": "tokenId",
          "type": "uint256"
        },
        {
          "indexed": false,
          "internalType": "address",
          "name": "seller",
          "type": "address"
        },
        {
          "indexed": false,
          "internalType": "address",
          "name": "buyer",
          "type": "address"
        },
        {
          "indexed": false,
          "internalType": "uint256",
          "name": "price",
          "type": "uint256"
        },
        {
          "indexed": false,
          "internalType": "enum DisputeNFTMarket.Status",
          "name": "status",
          "type": "uint8"
        },
        {
          "indexed": false,
          "internalType": "enum DisputeNFTMarket.Ruling",
          "name": "ruling",
          "type": "uint8"
        }
      ],
      "name": "DisputeResolved",
      "type": "event"
    },
    {
      "anonymous": false,
      "inputs": [
        {
          "indexed": true,
          "internalType": "uint256",
          "name": "itemId",
          "type": "uint256"
        },
        {
          "indexed": true,
          "internalType": "address",
          "name": "nftContract",
          "type": "address"
        },
        {
          "indexed": true,
          "internalType": "address",
          "name": "purchasedNFT",
          "type": "address"
        },
        {
          "indexed": false,
          "internalType": "uint256",
          "name": "tokenId",
          "type": "uint256"
        },
        {
          "indexed": false,
          "internalType": "address",
          "name": "seller",
          "type": "address"
        },
        {
          "indexed": false,
          "internalType": "address",
          "name": "buyer",
          "type": "address"
        },
        {
          "indexed": false,
          "internalType": "uint256",
          "name": "price",
          "type": "uint256"
        },
        {
          "indexed": false,
          "internalType": "enum DisputeNFTMarket.Status",
          "name": "status",
          "type": "uint8"
        },
        {
          "indexed": false,
          "internalType": "enum DisputeNFTMarket.Ruling",
          "name": "ruling",
          "type": "uint8"
        }
      ],
      "name": "DisputeTokenListed",
      "type": "event"
    },
    {
      "anonymous": false,
      "inputs": [
        {
          "indexed": true,
          "internalType": "address",
          "name": "juror",
          "type": "address"
        },
        {
          "indexed": true,
          "internalType": "uint256",
          "name": "itemId",
          "type": "uint256"
        },
        {
          "indexed": true,
          "internalType": "address",
          "name": "purchasedNFT",
          "type": "address"
        }
      ],
      "name": "JurorAdded",
      "type": "event"
    },
    {
      "inputs": [],
      "name": "ARBITRATION_FEE",
      "outputs": [
        {
          "internalType": "uint256",
          "name": "",
          "type": "uint256"
        }
      ],
      "stateMutability": "view",
      "type": "function"
    },
    {
      "inputs": [
        {
          "internalType": "address",
          "name": "_juror",
          "type": "address"
        }
      ],
      "name": "addJurors",
      "outputs": [],
      "stateMutability": "nonpayable",
      "type": "function"
    },
    {
      "inputs": [
        {
          "internalType": "uint256",
          "name": "itemId",
          "type": "uint256"
        }
      ],
      "name": "cancelDispute",
      "outputs": [],
      "stateMutability": "nonpayable",
      "type": "function"
    },
    {
      "inputs": [],
      "name": "fetchCancelledNFT",
      "outputs": [
        {
          "components": [
            {
              "internalType": "uint256",
              "name": "itemId",
              "type": "uint256"
            },
            {
              "internalType": "address",
              "name": "nftContract",
              "type": "address"
            },
            {
              "internalType": "address",
              "name": "purchasedNFT",
              "type": "address"
            },
            {
              "internalType": "uint256",
              "name": "tokenId",
              "type": "uint256"
            },
            {
              "internalType": "address",
              "name": "seller",
              "type": "address"
            },
            {
              "internalType": "address",
              "name": "buyer",
              "type": "address"
            },
            {
              "internalType": "uint256",
              "name": "price",
              "type": "uint256"
            },
            {
              "internalType": "enum DisputeNFTMarket.Status",
              "name": "status",
              "type": "uint8"
            },
            {
              "internalType": "enum DisputeNFTMarket.Ruling",
              "name": "ruling",
              "type": "uint8"
            }
          ],
          "internalType": "struct DisputeNFTMarket.DisputeToken[]",
          "name": "",
          "type": "tuple[]"
        }
      ],
      "stateMutability": "view",
      "type": "function"
    },
    {
      "inputs": [
        {
          "internalType": "uint256",
          "name": "itemId",
          "type": "uint256"
        }
      ],
      "name": "fetchDisputeStatus",
      "outputs": [
        {
          "internalType": "uint8",
          "name": "",
          "type": "uint8"
        }
      ],
      "stateMutability": "view",
      "type": "function"
    },
    {
      "inputs": [],
      "name": "fetchMyNFT",
      "outputs": [
        {
          "components": [
            {
              "internalType": "uint256",
              "name": "itemId",
              "type": "uint256"
            },
            {
              "internalType": "address",
              "name": "nftContract",
              "type": "address"
            },
            {
              "internalType": "address",
              "name": "purchasedNFT",
              "type": "address"
            },
            {
              "internalType": "uint256",
              "name": "tokenId",
              "type": "uint256"
            },
            {
              "internalType": "address",
              "name": "seller",
              "type": "address"
            },
            {
              "internalType": "address",
              "name": "buyer",
              "type": "address"
            },
            {
              "internalType": "uint256",
              "name": "price",
              "type": "uint256"
            },
            {
              "internalType": "enum DisputeNFTMarket.Status",
              "name": "status",
              "type": "uint8"
            },
            {
              "internalType": "enum DisputeNFTMarket.Ruling",
              "name": "ruling",
              "type": "uint8"
            }
          ],
          "internalType": "struct DisputeNFTMarket.DisputeToken[]",
          "name": "",
          "type": "tuple[]"
        }
      ],
      "stateMutability": "view",
      "type": "function"
    },
    {
      "inputs": [],
      "name": "fetchPendingNFT",
      "outputs": [
        {
          "components": [
            {
              "internalType": "uint256",
              "name": "itemId",
              "type": "uint256"
            },
            {
              "internalType": "address",
              "name": "nftContract",
              "type": "address"
            },
            {
              "internalType": "address",
              "name": "purchasedNFT",
              "type": "address"
            },
            {
              "internalType": "uint256",
              "name": "tokenId",
              "type": "uint256"
            },
            {
              "internalType": "address",
              "name": "seller",
              "type": "address"
            },
            {
              "internalType": "address",
              "name": "buyer",
              "type": "address"
            },
            {
              "internalType": "uint256",
              "name": "price",
              "type": "uint256"
            },
            {
              "internalType": "enum DisputeNFTMarket.Status",
              "name": "status",
              "type": "uint8"
            },
            {
              "internalType": "enum DisputeNFTMarket.Ruling",
              "name": "ruling",
              "type": "uint8"
            }
          ],
          "internalType": "struct DisputeNFTMarket.DisputeToken[]",
          "name": "",
          "type": "tuple[]"
        }
      ],
      "stateMutability": "view",
      "type": "function"
    },
    {
      "inputs": [],
      "name": "fetchResolvedNFT",
      "outputs": [
        {
          "components": [
            {
              "internalType": "uint256",
              "name": "itemId",
              "type": "uint256"
            },
            {
              "internalType": "address",
              "name": "nftContract",
              "type": "address"
            },
            {
              "internalType": "address",
              "name": "purchasedNFT",
              "type": "address"
            },
            {
              "internalType": "uint256",
              "name": "tokenId",
              "type": "uint256"
            },
            {
              "internalType": "address",
              "name": "seller",
              "type": "address"
            },
            {
              "internalType": "address",
              "name": "buyer",
              "type": "address"
            },
            {
              "internalType": "uint256",
              "name": "price",
              "type": "uint256"
            },
            {
              "internalType": "enum DisputeNFTMarket.Status",
              "name": "status",
              "type": "uint8"
            },
            {
              "internalType": "enum DisputeNFTMarket.Ruling",
              "name": "ruling",
              "type": "uint8"
            }
          ],
          "internalType": "struct DisputeNFTMarket.DisputeToken[]",
          "name": "",
          "type": "tuple[]"
        }
      ],
      "stateMutability": "view",
      "type": "function"
    },
    {
      "inputs": [
        {
          "internalType": "uint256",
          "name": "buyerOrSeller",
          "type": "uint256"
        }
      ],
      "name": "fetchResolvedNFTRefund",
      "outputs": [
        {
          "components": [
            {
              "internalType": "uint256",
              "name": "itemId",
              "type": "uint256"
            },
            {
              "internalType": "address",
              "name": "nftContract",
              "type": "address"
            },
            {
              "internalType": "address",
              "name": "purchasedNFT",
              "type": "address"
            },
            {
              "internalType": "uint256",
              "name": "tokenId",
              "type": "uint256"
            },
            {
              "internalType": "address",
              "name": "seller",
              "type": "address"
            },
            {
              "internalType": "address",
              "name": "buyer",
              "type": "address"
            },
            {
              "internalType": "uint256",
              "name": "price",
              "type": "uint256"
            },
            {
              "internalType": "enum DisputeNFTMarket.Status",
              "name": "status",
              "type": "uint8"
            },
            {
              "internalType": "enum DisputeNFTMarket.Ruling",
              "name": "ruling",
              "type": "uint8"
            }
          ],
          "internalType": "struct DisputeNFTMarket.DisputeToken[]",
          "name": "",
          "type": "tuple[]"
        }
      ],
      "stateMutability": "view",
      "type": "function"
    },
    {
      "inputs": [
        {
          "internalType": "uint256",
          "name": "itemId",
          "type": "uint256"
        }
      ],
      "name": "fetchRuling",
      "outputs": [
        {
          "internalType": "uint8",
          "name": "",
          "type": "uint8"
        }
      ],
      "stateMutability": "view",
      "type": "function"
    },
    {
      "inputs": [],
      "name": "getJurors",
      "outputs": [
        {
          "internalType": "address[]",
          "name": "",
          "type": "address[]"
        }
      ],
      "stateMutability": "view",
      "type": "function"
    },
    {
      "inputs": [
        {
          "internalType": "uint256",
          "name": "",
          "type": "uint256"
        }
      ],
      "name": "idToDisputeToken",
      "outputs": [
        {
          "internalType": "uint256",
          "name": "itemId",
          "type": "uint256"
        },
        {
          "internalType": "address",
          "name": "nftContract",
          "type": "address"
        },
        {
          "internalType": "address",
          "name": "purchasedNFT",
          "type": "address"
        },
        {
          "internalType": "uint256",
          "name": "tokenId",
          "type": "uint256"
        },
        {
          "internalType": "address",
          "name": "seller",
          "type": "address"
        },
        {
          "internalType": "address",
          "name": "buyer",
          "type": "address"
        },
        {
          "internalType": "uint256",
          "name": "price",
          "type": "uint256"
        },
        {
          "internalType": "enum DisputeNFTMarket.Status",
          "name": "status",
          "type": "uint8"
        },
        {
          "internalType": "enum DisputeNFTMarket.Ruling",
          "name": "ruling",
          "type": "uint8"
        }
      ],
      "stateMutability": "view",
      "type": "function"
    },
    {
      "inputs": [
        {
          "internalType": "uint256",
          "name": "itemId",
          "type": "uint256"
        }
      ],
      "name": "jurorClaimReward",
      "outputs": [],
      "stateMutability": "nonpayable",
      "type": "function"
    },
    {
      "inputs": [
        {
          "internalType": "address",
          "name": "",
          "type": "address"
        },
        {
          "internalType": "uint256",
          "name": "",
          "type": "uint256"
        }
      ],
      "name": "jurorDisputeVote",
      "outputs": [
        {
          "internalType": "enum DisputeNFTMarket.JurorVote",
          "name": "",
          "type": "uint8"
        }
      ],
      "stateMutability": "view",
      "type": "function"
    },
    {
      "inputs": [
        {
          "internalType": "address",
          "name": "",
          "type": "address"
        },
        {
          "internalType": "uint256",
          "name": "",
          "type": "uint256"
        }
      ],
      "name": "jurorRewardClaimed",
      "outputs": [
        {
          "internalType": "bool",
          "name": "",
          "type": "bool"
        }
      ],
      "stateMutability": "view",
      "type": "function"
    },
    {
      "inputs": [
        {
          "internalType": "address",
          "name": "",
          "type": "address"
        },
        {
          "internalType": "uint256",
          "name": "",
          "type": "uint256"
        }
      ],
      "name": "jurorVoted",
      "outputs": [
        {
          "internalType": "bool",
          "name": "",
          "type": "bool"
        }
      ],
      "stateMutability": "view",
      "type": "function"
    },
    {
      "inputs": [
        {
          "internalType": "uint256",
          "name": "",
          "type": "uint256"
        }
      ],
      "name": "jurors",
      "outputs": [
        {
          "internalType": "address",
          "name": "",
          "type": "address"
        }
      ],
      "stateMutability": "view",
      "type": "function"
    },
    {
      "inputs": [
        {
          "internalType": "address",
          "name": "nftContract",
          "type": "address"
        },
        {
          "internalType": "address",
          "name": "purchasedNFT",
          "type": "address"
        },
        {
          "internalType": "uint256",
          "name": "tokenId",
          "type": "uint256"
        },
        {
          "internalType": "address",
          "name": "seller",
          "type": "address"
        },
        {
          "internalType": "uint256",
          "name": "price",
          "type": "uint256"
        }
      ],
      "name": "listDispute",
      "outputs": [],
      "stateMutability": "payable",
      "type": "function"
    },
    {
      "inputs": [],
      "name": "marketPlaceOwner",
      "outputs": [
        {
          "internalType": "address",
          "name": "",
          "type": "address"
        }
      ],
      "stateMutability": "view",
      "type": "function"
    },
    {
      "inputs": [
        {
          "internalType": "address",
          "name": "_juror",
          "type": "address"
        }
      ],
      "name": "removeJuror",
      "outputs": [],
      "stateMutability": "nonpayable",
      "type": "function"
    },
    {
      "inputs": [
        {
          "internalType": "uint256",
          "name": "_arbitrationFee",
          "type": "uint256"
        }
      ],
      "name": "setArbitrationFee",
      "outputs": [],
      "stateMutability": "nonpayable",
      "type": "function"
    },
    {
      "inputs": [
        {
          "internalType": "address",
          "name": "",
          "type": "address"
        }
      ],
      "name": "verifyJurors",
      "outputs": [
        {
          "internalType": "bool",
          "name": "",
          "type": "bool"
        }
      ],
      "stateMutability": "view",
      "type": "function"
    },
    {
      "inputs": [
        {
          "internalType": "uint256",
          "name": "itemId",
          "type": "uint256"
        },
        {
          "internalType": "enum DisputeNFTMarket.JurorVote",
          "name": "_jurorVote",
          "type": "uint8"
        }
      ],
      "name": "vote",
      "outputs": [
        {
          "components": [
            {
              "internalType": "uint256",
              "name": "itemId",
              "type": "uint256"
            },
            {
              "internalType": "address",
              "name": "nftContract",
              "type": "address"
            },
            {
              "internalType": "address",
              "name": "purchasedNFT",
              "type": "address"
            },
            {
              "internalType": "uint256",
              "name": "tokenId",
              "type": "uint256"
            },
            {
              "internalType": "address",
              "name": "seller",
              "type": "address"
            },
            {
              "internalType": "address",
              "name": "buyer",
              "type": "address"
            },
            {
              "internalType": "uint256",
              "name": "price",
              "type": "uint256"
            },
            {
              "internalType": "enum DisputeNFTMarket.Status",
              "name": "status",
              "type": "uint8"
            },
            {
              "internalType": "enum DisputeNFTMarket.Ruling",
              "name": "ruling",
              "type": "uint8"
            }
          ],
          "internalType": "struct DisputeNFTMarket.DisputeToken",
          "name": "",
          "type": "tuple"
        }
      ],
      "stateMutability": "nonpayable",
      "type": "function"
    },
    {
      "inputs": [
        {
          "internalType": "uint256",
          "name": "",
          "type": "uint256"
        }
      ],
      "name": "voteBuyer",
      "outputs": [
        {
          "internalType": "uint256",
          "name": "",
          "type": "uint256"
        }
      ],
      "stateMutability": "view",
      "type": "function"
    },
    {
      "inputs": [
        {
          "internalType": "uint256",
          "name": "",
          "type": "uint256"
        }
      ],
      "name": "voteNumber",
      "outputs": [
        {
          "internalType": "uint256",
          "name": "",
          "type": "uint256"
        }
      ],
      "stateMutability": "view",
      "type": "function"
    }
  ],
  "bytecode": "0x6080604052662386f26fc100006006553480156200001c57600080fd5b5060405162005853380380620058538339818101604052810190620000429190620000a9565b600160008190555080600560006101000a81548173ffffffffffffffffffffffffffffffffffffffff021916908373ffffffffffffffffffffffffffffffffffffffff1602179055505062000123565b600081519050620000a38162000109565b92915050565b600060208284031215620000bc57600080fd5b6000620000cc8482850162000092565b91505092915050565b6000620000e282620000e9565b9050919050565b600073ffffffffffffffffffffffffffffffffffffffff82169050919050565b6200011481620000d5565b81146200012057600080fd5b50565b61572080620001336000396000f3fe6080604052600436106101665760003560e01c8063943e8216116100d1578063c84501d71161008a578063df02935c11610064578063df02935c146105ad578063e1c2f2b6146105d6578063e33d149d14610613578063f6cd25f01461063c57610166565b8063c84501d7146104f6578063ca6f502314610533578063d47b45d11461057057610166565b8063943e8216146103b657806397c37af5146103f35780639f226c2c1461041e578063a7fb17dc14610463578063c18763f7146104a0578063c1d6c862146104cb57610166565b80635b3b2af8116101235780635b3b2af8146102a35780635ea7b4fc146102ce57806371bd9c99146102f757806376450d3e146103205780637bc6f6881461035d5780637cd38ff81461037957610166565b8063049869c91461016b5780630703e2c3146101965780630f163a0a146101d3578063116c93f4146101fe578063267c43e01461023b5780635a282ebe14610266575b600080fd5b34801561017757600080fd5b50610180610665565b60405161018d9190615085565b60405180910390f35b3480156101a257600080fd5b506101bd60048036038101906101b89190614899565b61066b565b6040516101ca919061518e565b60405180910390f35b3480156101df57600080fd5b506101e8610860565b6040516101f59190614e71565b60405180910390f35b34801561020a57600080fd5b5061022560048036038101906102209190614899565b610dbe565b6040516102329190615085565b60405180910390f35b34801561024757600080fd5b50610250610dd6565b60405161025d9190614e71565b60405180910390f35b34801561027257600080fd5b5061028d6004803603810190610288919061485d565b611334565b60405161029a9190614eae565b60405180910390f35b3480156102af57600080fd5b506102b8611363565b6040516102c59190614e4f565b60405180910390f35b3480156102da57600080fd5b506102f560048036038101906102f09190614899565b6113f1565b005b34801561030357600080fd5b5061031e600480360381019061031991906147bd565b611455565b005b34801561032c57600080fd5b5061034760048036038101906103429190614899565b6115b6565b6040516103549190614e71565b60405180910390f35b610377600480360381019061037291906147e6565b611ca6565b005b34801561038557600080fd5b506103a0600480360381019061039b9190614899565b61218a565b6040516103ad9190614dfd565b60405180910390f35b3480156103c257600080fd5b506103dd60048036038101906103d891906148c2565b6121c9565b6040516103ea9190615069565b60405180910390f35b3480156103ff57600080fd5b50610408612cf9565b6040516104159190614dfd565b60405180910390f35b34801561042a57600080fd5b5061044560048036038101906104409190614899565b612d1f565b60405161045a999897969594939291906150a0565b60405180910390f35b34801561046f57600080fd5b5061048a60048036038101906104859190614899565b612e07565b6040516104979190615085565b60405180910390f35b3480156104ac57600080fd5b506104b5612e1f565b6040516104c29190614e71565b60405180910390f35b3480156104d757600080fd5b506104e0613319565b6040516104ed9190614e71565b60405180910390f35b34801561050257600080fd5b5061051d600480360381019061051891906147bd565b613875565b60405161052a9190614e93565b60405180910390f35b34801561053f57600080fd5b5061055a60048036038101906105559190614899565b613895565b604051610567919061518e565b60405180910390f35b34801561057c57600080fd5b506105976004803603810190610592919061485d565b613a8a565b6040516105a49190614e93565b60405180910390f35b3480156105b957600080fd5b506105d460048036038101906105cf9190614899565b613ab9565b005b3480156105e257600080fd5b506105fd60048036038101906105f8919061485d565b613c30565b60405161060a9190614e93565b60405180910390f35b34801561061f57600080fd5b5061063a60048036038101906106359190614899565b613c5f565b005b34801561064857600080fd5b50610663600480360381019061065e91906147bd565b6143a6565b005b60065481565b60008060028111156106a6577f4e487b7100000000000000000000000000000000000000000000000000000000600052602160045260246000fd5b6008600084815260200190815260200160002060070160009054906101000a900460ff166002811115610702577f4e487b7100000000000000000000000000000000000000000000000000000000600052602160045260246000fd5b1415610711576000905061085b565b6001600281111561074b577f4e487b7100000000000000000000000000000000000000000000000000000000600052602160045260246000fd5b6008600084815260200190815260200160002060070160009054906101000a900460ff1660028111156107a7577f4e487b7100000000000000000000000000000000000000000000000000000000600052602160045260246000fd5b14156107b6576001905061085b565b6002808111156107ef577f4e487b7100000000000000000000000000000000000000000000000000000000600052602160045260246000fd5b6008600084815260200190815260200160002060070160009054906101000a900460ff16600281111561084b577f4e487b7100000000000000000000000000000000000000000000000000000000600052602160045260246000fd5b141561085a576002905061085b565b5b919050565b6060600061086e6001614646565b905060008060005b8381101561094957600060028111156108b8577f4e487b7100000000000000000000000000000000000000000000000000000000600052602160045260246000fd5b600860006001846108c99190615237565b815260200190815260200160002060070160009054906101000a900460ff166002811115610920577f4e487b7100000000000000000000000000000000000000000000000000000000600052602160045260246000fd5b1415610936576001836109339190615237565b92505b808061094190615382565b915050610876565b5060008267ffffffffffffffff81111561098c577f4e487b7100000000000000000000000000000000000000000000000000000000600052604160045260246000fd5b6040519080825280602002602001820160405280156109c557816020015b6109b261466a565b8152602001906001900390816109aa5790505b50905060005b83811015610db35760006002811115610a0d577f4e487b7100000000000000000000000000000000000000000000000000000000600052602160045260246000fd5b60086000600184610a1e9190615237565b815260200190815260200160002060070160009054906101000a900460ff166002811115610a75577f4e487b7100000000000000000000000000000000000000000000000000000000600052602160045260246000fd5b1415610da057600060086000600184610a8e9190615237565b815260200190815260200160002060000154905060006008600083815260200190815260200160002090508060405180610120016040529081600082015481526020016001820160009054906101000a900473ffffffffffffffffffffffffffffffffffffffff1673ffffffffffffffffffffffffffffffffffffffff1673ffffffffffffffffffffffffffffffffffffffff1681526020016002820160009054906101000a900473ffffffffffffffffffffffffffffffffffffffff1673ffffffffffffffffffffffffffffffffffffffff1673ffffffffffffffffffffffffffffffffffffffff168152602001600382015481526020016004820160009054906101000a900473ffffffffffffffffffffffffffffffffffffffff1673ffffffffffffffffffffffffffffffffffffffff1673ffffffffffffffffffffffffffffffffffffffff1681526020016005820160009054906101000a900473ffffffffffffffffffffffffffffffffffffffff1673ffffffffffffffffffffffffffffffffffffffff1673ffffffffffffffffffffffffffffffffffffffff168152602001600682015481526020016007820160009054906101000a900460ff166002811115610c87577f4e487b7100000000000000000000000000000000000000000000000000000000600052602160045260246000fd5b6002811115610cbf577f4e487b7100000000000000000000000000000000000000000000000000000000600052602160045260246000fd5b81526020016007820160019054906101000a900460ff166002811115610d0e577f4e487b7100000000000000000000000000000000000000000000000000000000600052602160045260246000fd5b6002811115610d46577f4e487b7100000000000000000000000000000000000000000000000000000000600052602160045260246000fd5b81525050848681518110610d83577f4e487b7100000000000000000000000000000000000000000000000000000000600052603260045260246000fd5b6020026020010181905250600185610d9b9190615237565b945050505b8080610dab90615382565b9150506109cb565b508094505050505090565b600d6020528060005260406000206000915090505481565b60606000610de46001614646565b905060008060005b83811015610ebf5760016002811115610e2e577f4e487b7100000000000000000000000000000000000000000000000000000000600052602160045260246000fd5b60086000600184610e3f9190615237565b815260200190815260200160002060070160009054906101000a900460ff166002811115610e96577f4e487b7100000000000000000000000000000000000000000000000000000000600052602160045260246000fd5b1415610eac57600183610ea99190615237565b92505b8080610eb790615382565b915050610dec565b5060008267ffffffffffffffff811115610f02577f4e487b7100000000000000000000000000000000000000000000000000000000600052604160045260246000fd5b604051908082528060200260200182016040528015610f3b57816020015b610f2861466a565b815260200190600190039081610f205790505b50905060005b838110156113295760016002811115610f83577f4e487b7100000000000000000000000000000000000000000000000000000000600052602160045260246000fd5b60086000600184610f949190615237565b815260200190815260200160002060070160009054906101000a900460ff166002811115610feb577f4e487b7100000000000000000000000000000000000000000000000000000000600052602160045260246000fd5b1415611316576000600860006001846110049190615237565b815260200190815260200160002060000154905060006008600083815260200190815260200160002090508060405180610120016040529081600082015481526020016001820160009054906101000a900473ffffffffffffffffffffffffffffffffffffffff1673ffffffffffffffffffffffffffffffffffffffff1673ffffffffffffffffffffffffffffffffffffffff1681526020016002820160009054906101000a900473ffffffffffffffffffffffffffffffffffffffff1673ffffffffffffffffffffffffffffffffffffffff1673ffffffffffffffffffffffffffffffffffffffff168152602001600382015481526020016004820160009054906101000a900473ffffffffffffffffffffffffffffffffffffffff1673ffffffffffffffffffffffffffffffffffffffff1673ffffffffffffffffffffffffffffffffffffffff1681526020016005820160009054906101000a900473ffffffffffffffffffffffffffffffffffffffff1673ffffffffffffffffffffffffffffffffffffffff1673ffffffffffffffffffffffffffffffffffffffff168152602001600682015481526020016007820160009054906101000a900460ff1660028111156111fd577f4e487b7100000000000000000000000000000000000000000000000000000000600052602160045260246000fd5b6002811115611235577f4e487b7100000000000000000000000000000000000000000000000000000000600052602160045260246000fd5b81526020016007820160019054906101000a900460ff166002811115611284577f4e487b7100000000000000000000000000000000000000000000000000000000600052602160045260246000fd5b60028111156112bc577f4e487b7100000000000000000000000000000000000000000000000000000000600052602160045260246000fd5b815250508486815181106112f9577f4e487b7100000000000000000000000000000000000000000000000000000000600052603260045260246000fd5b60200260200101819052506001856113119190615237565b945050505b808061132190615382565b915050610f41565b508094505050505090565b600a6020528160005260406000206020528060005260406000206000915091509054906101000a900460ff1681565b606060048054806020026020016040519081016040528092919081815260200182805480156113e757602002820191906000526020600020905b8160009054906101000a900473ffffffffffffffffffffffffffffffffffffffff1673ffffffffffffffffffffffffffffffffffffffff168152602001906001019080831161139d575b5050505050905090565b600560009054906101000a900473ffffffffffffffffffffffffffffffffffffffff1673ffffffffffffffffffffffffffffffffffffffff163373ffffffffffffffffffffffffffffffffffffffff161461144b57600080fd5b8060068190555050565b600560009054906101000a900473ffffffffffffffffffffffffffffffffffffffff1673ffffffffffffffffffffffffffffffffffffffff163373ffffffffffffffffffffffffffffffffffffffff16146114af57600080fd5b600360048054905011156114f8576040517f08c379a00000000000000000000000000000000000000000000000000000000081526004016114ef90614ec9565b60405180910390fd5b6001600960008373ffffffffffffffffffffffffffffffffffffffff1673ffffffffffffffffffffffffffffffffffffffff16815260200190815260200160002060006101000a81548160ff0219169083151502179055506004819080600181540180825580915050600190039060005260206000200160009091909190916101000a81548173ffffffffffffffffffffffffffffffffffffffff021916908373ffffffffffffffffffffffffffffffffffffffff16021790555050565b606060006115c46001614646565b905060008060005b83811015611861576000861415611713573373ffffffffffffffffffffffffffffffffffffffff16600860006001846116059190615237565b815260200190815260200160002060050160009054906101000a900473ffffffffffffffffffffffffffffffffffffffff1673ffffffffffffffffffffffffffffffffffffffff161480156116f957506001600281111561168f577f4e487b7100000000000000000000000000000000000000000000000000000000600052602160045260246000fd5b600860006001846116a09190615237565b815260200190815260200160002060070160019054906101000a900460ff1660028111156116f7577f4e487b7100000000000000000000000000000000000000000000000000000000600052602160045260246000fd5b145b1561170e5760018361170b9190615237565b92505b61184e565b600186141561184d573373ffffffffffffffffffffffffffffffffffffffff16600860006001846117449190615237565b815260200190815260200160002060040160009054906101000a900473ffffffffffffffffffffffffffffffffffffffff1673ffffffffffffffffffffffffffffffffffffffff1614801561183757506002808111156117cd577f4e487b7100000000000000000000000000000000000000000000000000000000600052602160045260246000fd5b600860006001846117de9190615237565b815260200190815260200160002060070160019054906101000a900460ff166002811115611835577f4e487b7100000000000000000000000000000000000000000000000000000000600052602160045260246000fd5b145b1561184c576001836118499190615237565b92505b5b5b808061185990615382565b9150506115cc565b5060008267ffffffffffffffff8111156118a4577f4e487b7100000000000000000000000000000000000000000000000000000000600052604160045260246000fd5b6040519080825280602002602001820160405280156118dd57816020015b6118ca61466a565b8152602001906001900390816118c25790505b50905060005b83811015611c99573373ffffffffffffffffffffffffffffffffffffffff16600860006001846119139190615237565b815260200190815260200160002060050160009054906101000a900473ffffffffffffffffffffffffffffffffffffffff1673ffffffffffffffffffffffffffffffffffffffff161415611c86576000600860006001846119749190615237565b815260200190815260200160002060000154905060006008600083815260200190815260200160002090508060405180610120016040529081600082015481526020016001820160009054906101000a900473ffffffffffffffffffffffffffffffffffffffff1673ffffffffffffffffffffffffffffffffffffffff1673ffffffffffffffffffffffffffffffffffffffff1681526020016002820160009054906101000a900473ffffffffffffffffffffffffffffffffffffffff1673ffffffffffffffffffffffffffffffffffffffff1673ffffffffffffffffffffffffffffffffffffffff168152602001600382015481526020016004820160009054906101000a900473ffffffffffffffffffffffffffffffffffffffff1673ffffffffffffffffffffffffffffffffffffffff1673ffffffffffffffffffffffffffffffffffffffff1681526020016005820160009054906101000a900473ffffffffffffffffffffffffffffffffffffffff1673ffffffffffffffffffffffffffffffffffffffff1673ffffffffffffffffffffffffffffffffffffffff168152602001600682015481526020016007820160009054906101000a900460ff166002811115611b6d577f4e487b7100000000000000000000000000000000000000000000000000000000600052602160045260246000fd5b6002811115611ba5577f4e487b7100000000000000000000000000000000000000000000000000000000600052602160045260246000fd5b81526020016007820160019054906101000a900460ff166002811115611bf4577f4e487b7100000000000000000000000000000000000000000000000000000000600052602160045260246000fd5b6002811115611c2c577f4e487b7100000000000000000000000000000000000000000000000000000000600052602160045260246000fd5b81525050848681518110611c69577f4e487b7100000000000000000000000000000000000000000000000000000000600052603260045260246000fd5b6020026020010181905250600185611c819190615237565b945050505b8080611c9190615382565b9150506118e3565b5080945050505050919050565b60026000541415611cec576040517f08c379a0000000000000000000000000000000000000000000000000000000008152600401611ce390615029565b60405180910390fd5b600260008190555060008111611d37576040517f08c379a0000000000000000000000000000000000000000000000000000000008152600401611d2e90614ee9565b60405180910390fd5b6006543414611d7b576040517f08c379a0000000000000000000000000000000000000000000000000000000008152600401611d7290615009565b60405180910390fd5b611d856001614654565b6000611d916001614646565b90506040518061012001604052808281526020018773ffffffffffffffffffffffffffffffffffffffff1681526020018673ffffffffffffffffffffffffffffffffffffffff1681526020018581526020018473ffffffffffffffffffffffffffffffffffffffff1681526020013373ffffffffffffffffffffffffffffffffffffffff16815260200183815260200160006002811115611e5b577f4e487b7100000000000000000000000000000000000000000000000000000000600052602160045260246000fd5b815260200160006002811115611e9a577f4e487b7100000000000000000000000000000000000000000000000000000000600052602160045260246000fd5b815250600860008381526020019081526020016000206000820151816000015560208201518160010160006101000a81548173ffffffffffffffffffffffffffffffffffffffff021916908373ffffffffffffffffffffffffffffffffffffffff16021790555060408201518160020160006101000a81548173ffffffffffffffffffffffffffffffffffffffff021916908373ffffffffffffffffffffffffffffffffffffffff1602179055506060820151816003015560808201518160040160006101000a81548173ffffffffffffffffffffffffffffffffffffffff021916908373ffffffffffffffffffffffffffffffffffffffff16021790555060a08201518160050160006101000a81548173ffffffffffffffffffffffffffffffffffffffff021916908373ffffffffffffffffffffffffffffffffffffffff16021790555060c0820151816006015560e08201518160070160006101000a81548160ff0219169083600281111561203b577f4e487b7100000000000000000000000000000000000000000000000000000000600052602160045260246000fd5b02179055506101008201518160070160016101000a81548160ff02191690836002811115612092577f4e487b7100000000000000000000000000000000000000000000000000000000600052602160045260246000fd5b02179055509050508573ffffffffffffffffffffffffffffffffffffffff166323b872dd3330876040518463ffffffff1660e01b81526004016120d793929190614e18565b600060405180830381600087803b1580156120f157600080fd5b505af1158015612105573d6000803e3d6000fd5b505050508473ffffffffffffffffffffffffffffffffffffffff168673ffffffffffffffffffffffffffffffffffffffff16827fe96f4db9961b1cbd249829261e578472902adbcd788541072e6355ae398f1f7b878733886000806040516121729695949392919061512d565b60405180910390a45060016000819055505050505050565b6004818154811061219a57600080fd5b906000526020600020016000915054906101000a900473ffffffffffffffffffffffffffffffffffffffff1681565b6121d161466a565b600960003373ffffffffffffffffffffffffffffffffffffffff1673ffffffffffffffffffffffffffffffffffffffff16815260200190815260200160002060009054906101000a900460ff1661225d576040517f08c379a000000000000000000000000000000000000000000000000000000000815260040161225490614f09565b60405180910390fd5b60006002811115612297577f4e487b7100000000000000000000000000000000000000000000000000000000600052602160045260246000fd5b6008600085815260200190815260200160002060070160009054906101000a900460ff1660028111156122f3577f4e487b7100000000000000000000000000000000000000000000000000000000600052602160045260246000fd5b14612333576040517f08c379a000000000000000000000000000000000000000000000000000000000815260040161232a90614f29565b60405180910390fd5b600c60003373ffffffffffffffffffffffffffffffffffffffff1673ffffffffffffffffffffffffffffffffffffffff168152602001908152602001600020600084815260200190815260200160002060009054906101000a900460ff16156123d1576040517f08c379a00000000000000000000000000000000000000000000000000000000081526004016123c890614fc9565b60405180910390fd5b6000600181111561240b577f4e487b7100000000000000000000000000000000000000000000000000000000600052602160045260246000fd5b826001811115612444577f4e487b7100000000000000000000000000000000000000000000000000000000600052602160045260246000fd5b14806124bf5750600180811115612484577f4e487b7100000000000000000000000000000000000000000000000000000000600052602160045260246000fd5b8260018111156124bd577f4e487b7100000000000000000000000000000000000000000000000000000000600052602160045260246000fd5b145b6124fe576040517f08c379a00000000000000000000000000000000000000000000000000000000081526004016124f590614fe9565b60405180910390fd5b6003600d60008581526020019081526020016000205410612554576040517f08c379a000000000000000000000000000000000000000000000000000000000815260040161254b90614fa9565b60405180910390fd5b81600a60003373ffffffffffffffffffffffffffffffffffffffff1673ffffffffffffffffffffffffffffffffffffffff168152602001908152602001600020600085815260200190815260200160002060006101000a81548160ff021916908360018111156125ed577f4e487b7100000000000000000000000000000000000000000000000000000000600052602160045260246000fd5b02179055506001600c60003373ffffffffffffffffffffffffffffffffffffffff1673ffffffffffffffffffffffffffffffffffffffff168152602001908152602001600020600085815260200190815260200160002060006101000a81548160ff021916908315150217905550600d6000848152602001908152602001600020600081548092919061267f90615382565b9190505550600060018111156126be577f4e487b7100000000000000000000000000000000000000000000000000000000600052602160045260246000fd5b8260018111156126f7577f4e487b7100000000000000000000000000000000000000000000000000000000600052602160045260246000fd5b141561272757600e6000848152602001908152602001600020600081548092919061272190615382565b91905055505b6003600d6000858152602001908152602001600020541415612894576002600e600085815260200190815260200160002054106127c85760016008600085815260200190815260200160002060070160016101000a81548160ff021916908360028111156127be577f4e487b7100000000000000000000000000000000000000000000000000000000600052602160045260246000fd5b021790555061282e565b60026008600085815260200190815260200160002060070160016101000a81548160ff02191690836002811115612828577f4e487b7100000000000000000000000000000000000000000000000000000000600052602160045260246000fd5b02179055505b60016008600085815260200190815260200160002060070160006101000a81548160ff0219169083600281111561288e577f4e487b7100000000000000000000000000000000000000000000000000000000600052602160045260246000fd5b02179055505b6008600084815260200190815260200160002060020160009054906101000a900473ffffffffffffffffffffffffffffffffffffffff1673ffffffffffffffffffffffffffffffffffffffff166008600085815260200190815260200160002060010160009054906101000a900473ffffffffffffffffffffffffffffffffffffffff1673ffffffffffffffffffffffffffffffffffffffff16847f48bafb230831d59e9ff72dba9e8c1950d7bed001cb268076221d87d6f137a24960086000888152602001908152602001600020600301546008600089815260200190815260200160002060040160009054906101000a900473ffffffffffffffffffffffffffffffffffffffff16600860008a815260200190815260200160002060050160009054906101000a900473ffffffffffffffffffffffffffffffffffffffff16600860008b815260200190815260200160002060060154600860008c815260200190815260200160002060070160009054906101000a900460ff16600860008d815260200190815260200160002060070160019054906101000a900460ff16604051612a469695949392919061512d565b60405180910390a46008600084815260200190815260200160002060405180610120016040529081600082015481526020016001820160009054906101000a900473ffffffffffffffffffffffffffffffffffffffff1673ffffffffffffffffffffffffffffffffffffffff1673ffffffffffffffffffffffffffffffffffffffff1681526020016002820160009054906101000a900473ffffffffffffffffffffffffffffffffffffffff1673ffffffffffffffffffffffffffffffffffffffff1673ffffffffffffffffffffffffffffffffffffffff168152602001600382015481526020016004820160009054906101000a900473ffffffffffffffffffffffffffffffffffffffff1673ffffffffffffffffffffffffffffffffffffffff1673ffffffffffffffffffffffffffffffffffffffff1681526020016005820160009054906101000a900473ffffffffffffffffffffffffffffffffffffffff1673ffffffffffffffffffffffffffffffffffffffff1673ffffffffffffffffffffffffffffffffffffffff168152602001600682015481526020016007820160009054906101000a900460ff166002811115612c2e577f4e487b7100000000000000000000000000000000000000000000000000000000600052602160045260246000fd5b6002811115612c66577f4e487b7100000000000000000000000000000000000000000000000000000000600052602160045260246000fd5b81526020016007820160019054906101000a900460ff166002811115612cb5577f4e487b7100000000000000000000000000000000000000000000000000000000600052602160045260246000fd5b6002811115612ced577f4e487b7100000000000000000000000000000000000000000000000000000000600052602160045260246000fd5b81525050905092915050565b600560009054906101000a900473ffffffffffffffffffffffffffffffffffffffff1681565b60086020528060005260406000206000915090508060000154908060010160009054906101000a900473ffffffffffffffffffffffffffffffffffffffff16908060020160009054906101000a900473ffffffffffffffffffffffffffffffffffffffff16908060030154908060040160009054906101000a900473ffffffffffffffffffffffffffffffffffffffff16908060050160009054906101000a900473ffffffffffffffffffffffffffffffffffffffff16908060060154908060070160009054906101000a900460ff16908060070160019054906101000a900460ff16905089565b600e6020528060005260406000206000915090505481565b60606000612e2d6001614646565b905060008060005b83811015612ed6573373ffffffffffffffffffffffffffffffffffffffff1660086000600184612e659190615237565b815260200190815260200160002060050160009054906101000a900473ffffffffffffffffffffffffffffffffffffffff1673ffffffffffffffffffffffffffffffffffffffff161415612ec357600183612ec09190615237565b92505b8080612ece90615382565b915050612e35565b5060008267ffffffffffffffff811115612f19577f4e487b7100000000000000000000000000000000000000000000000000000000600052604160045260246000fd5b604051908082528060200260200182016040528015612f5257816020015b612f3f61466a565b815260200190600190039081612f375790505b50905060005b8381101561330e573373ffffffffffffffffffffffffffffffffffffffff1660086000600184612f889190615237565b815260200190815260200160002060050160009054906101000a900473ffffffffffffffffffffffffffffffffffffffff1673ffffffffffffffffffffffffffffffffffffffff1614156132fb57600060086000600184612fe99190615237565b815260200190815260200160002060000154905060006008600083815260200190815260200160002090508060405180610120016040529081600082015481526020016001820160009054906101000a900473ffffffffffffffffffffffffffffffffffffffff1673ffffffffffffffffffffffffffffffffffffffff1673ffffffffffffffffffffffffffffffffffffffff1681526020016002820160009054906101000a900473ffffffffffffffffffffffffffffffffffffffff1673ffffffffffffffffffffffffffffffffffffffff1673ffffffffffffffffffffffffffffffffffffffff168152602001600382015481526020016004820160009054906101000a900473ffffffffffffffffffffffffffffffffffffffff1673ffffffffffffffffffffffffffffffffffffffff1673ffffffffffffffffffffffffffffffffffffffff1681526020016005820160009054906101000a900473ffffffffffffffffffffffffffffffffffffffff1673ffffffffffffffffffffffffffffffffffffffff1673ffffffffffffffffffffffffffffffffffffffff168152602001600682015481526020016007820160009054906101000a900460ff1660028111156131e2577f4e487b7100000000000000000000000000000000000000000000000000000000600052602160045260246000fd5b600281111561321a577f4e487b7100000000000000000000000000000000000000000000000000000000600052602160045260246000fd5b81526020016007820160019054906101000a900460ff166002811115613269577f4e487b7100000000000000000000000000000000000000000000000000000000600052602160045260246000fd5b60028111156132a1577f4e487b7100000000000000000000000000000000000000000000000000000000600052602160045260246000fd5b815250508486815181106132de577f4e487b7100000000000000000000000000000000000000000000000000000000600052603260045260246000fd5b60200260200101819052506001856132f69190615237565b945050505b808061330690615382565b915050612f58565b508094505050505090565b606060006133276001614646565b905060008060005b8381101561340157600280811115613370577f4e487b7100000000000000000000000000000000000000000000000000000000600052602160045260246000fd5b600860006001846133819190615237565b815260200190815260200160002060070160009054906101000a900460ff1660028111156133d8577f4e487b7100000000000000000000000000000000000000000000000000000000600052602160045260246000fd5b14156133ee576001836133eb9190615237565b92505b80806133f990615382565b91505061332f565b5060008267ffffffffffffffff811115613444577f4e487b7100000000000000000000000000000000000000000000000000000000600052604160045260246000fd5b60405190808252806020026020018201604052801561347d57816020015b61346a61466a565b8152602001906001900390816134625790505b50905060005b8381101561386a576002808111156134c4577f4e487b7100000000000000000000000000000000000000000000000000000000600052602160045260246000fd5b600860006001846134d59190615237565b815260200190815260200160002060070160009054906101000a900460ff16600281111561352c577f4e487b7100000000000000000000000000000000000000000000000000000000600052602160045260246000fd5b1415613857576000600860006001846135459190615237565b815260200190815260200160002060000154905060006008600083815260200190815260200160002090508060405180610120016040529081600082015481526020016001820160009054906101000a900473ffffffffffffffffffffffffffffffffffffffff1673ffffffffffffffffffffffffffffffffffffffff1673ffffffffffffffffffffffffffffffffffffffff1681526020016002820160009054906101000a900473ffffffffffffffffffffffffffffffffffffffff1673ffffffffffffffffffffffffffffffffffffffff1673ffffffffffffffffffffffffffffffffffffffff168152602001600382015481526020016004820160009054906101000a900473ffffffffffffffffffffffffffffffffffffffff1673ffffffffffffffffffffffffffffffffffffffff1673ffffffffffffffffffffffffffffffffffffffff1681526020016005820160009054906101000a900473ffffffffffffffffffffffffffffffffffffffff1673ffffffffffffffffffffffffffffffffffffffff1673ffffffffffffffffffffffffffffffffffffffff168152602001600682015481526020016007820160009054906101000a900460ff16600281111561373e577f4e487b7100000000000000000000000000000000000000000000000000000000600052602160045260246000fd5b6002811115613776577f4e487b7100000000000000000000000000000000000000000000000000000000600052602160045260246000fd5b81526020016007820160019054906101000a900460ff1660028111156137c5577f4e487b7100000000000000000000000000000000000000000000000000000000600052602160045260246000fd5b60028111156137fd577f4e487b7100000000000000000000000000000000000000000000000000000000600052602160045260246000fd5b8152505084868151811061383a577f4e487b7100000000000000000000000000000000000000000000000000000000600052603260045260246000fd5b60200260200101819052506001856138529190615237565b945050505b808061386290615382565b915050613483565b508094505050505090565b60096020528060005260406000206000915054906101000a900460ff1681565b60008060028111156138d0577f4e487b7100000000000000000000000000000000000000000000000000000000600052602160045260246000fd5b6008600084815260200190815260200160002060070160019054906101000a900460ff16600281111561392c577f4e487b7100000000000000000000000000000000000000000000000000000000600052602160045260246000fd5b141561393b5760009050613a85565b60016002811115613975577f4e487b7100000000000000000000000000000000000000000000000000000000600052602160045260246000fd5b6008600084815260200190815260200160002060070160019054906101000a900460ff1660028111156139d1577f4e487b7100000000000000000000000000000000000000000000000000000000600052602160045260246000fd5b14156139e05760019050613a85565b600280811115613a19577f4e487b7100000000000000000000000000000000000000000000000000000000600052602160045260246000fd5b6008600084815260200190815260200160002060070160019054906101000a900460ff166002811115613a75577f4e487b7100000000000000000000000000000000000000000000000000000000600052602160045260246000fd5b1415613a845760029050613a85565b5b919050565b600c6020528160005260406000206020528060005260406000206000915091509054906101000a900460ff1681565b60006002811115613af3577f4e487b7100000000000000000000000000000000000000000000000000000000600052602160045260246000fd5b6008600083815260200190815260200160002060070160009054906101000a900460ff166002811115613b4f577f4e487b7100000000000000000000000000000000000000000000000000000000600052602160045260246000fd5b14613b5957600080fd5b60026008600083815260200190815260200160002060070160006101000a81548160ff02191690836002811115613bb9577f4e487b7100000000000000000000000000000000000000000000000000000000600052602160045260246000fd5b021790555060026008600083815260200190815260200160002060070160016101000a81548160ff02191690836002811115613c1e577f4e487b7100000000000000000000000000000000000000000000000000000000600052602160045260246000fd5b0217905550613c2d6002614654565b50565b600b6020528160005260406000206020528060005260406000206000915091509054906101000a900460ff1681565b60016002811115613c99577f4e487b7100000000000000000000000000000000000000000000000000000000600052602160045260246000fd5b6008600083815260200190815260200160002060070160009054906101000a900460ff166002811115613cf5577f4e487b7100000000000000000000000000000000000000000000000000000000600052602160045260246000fd5b14613d35576040517f08c379a0000000000000000000000000000000000000000000000000000000008152600401613d2c90614f89565b60405180910390fd5b600c60003373ffffffffffffffffffffffffffffffffffffffff1673ffffffffffffffffffffffffffffffffffffffff168152602001908152602001600020600082815260200190815260200160002060009054906101000a900460ff16613dd2576040517f08c379a0000000000000000000000000000000000000000000000000000000008152600401613dc990614f49565b60405180910390fd5b600b60003373ffffffffffffffffffffffffffffffffffffffff1673ffffffffffffffffffffffffffffffffffffffff168152602001908152602001600020600082815260200190815260200160002060009054906101000a900460ff1615613e70576040517f08c379a0000000000000000000000000000000000000000000000000000000008152600401613e6790615049565b60405180910390fd5b60016002811115613eaa577f4e487b7100000000000000000000000000000000000000000000000000000000600052602160045260246000fd5b6008600083815260200190815260200160002060070160019054906101000a900460ff166002811115613f06577f4e487b7100000000000000000000000000000000000000000000000000000000600052602160045260246000fd5b141561410c5760006001811115613f46577f4e487b7100000000000000000000000000000000000000000000000000000000600052602160045260246000fd5b600a60003373ffffffffffffffffffffffffffffffffffffffff1673ffffffffffffffffffffffffffffffffffffffff168152602001908152602001600020600083815260200190815260200160002060009054906101000a900460ff166001811115613fdc577f4e487b7100000000000000000000000000000000000000000000000000000000600052602160045260246000fd5b1415614107576001600b60003373ffffffffffffffffffffffffffffffffffffffff1673ffffffffffffffffffffffffffffffffffffffff168152602001908152602001600020600083815260200190815260200160002060006101000a81548160ff02191690831515021790555060003373ffffffffffffffffffffffffffffffffffffffff166003600654614073919061528d565b60405161407f90614de8565b60006040518083038185875af1925050503d80600081146140bc576040519150601f19603f3d011682016040523d82523d6000602084013e6140c1565b606091505b5050905080614105576040517f08c379a00000000000000000000000000000000000000000000000000000000081526004016140fc90614f69565b60405180910390fd5b505b6143a3565b600280811115614145577f4e487b7100000000000000000000000000000000000000000000000000000000600052602160045260246000fd5b6008600083815260200190815260200160002060070160019054906101000a900460ff1660028111156141a1577f4e487b7100000000000000000000000000000000000000000000000000000000600052602160045260246000fd5b14156143a2576001808111156141e0577f4e487b7100000000000000000000000000000000000000000000000000000000600052602160045260246000fd5b600a60003373ffffffffffffffffffffffffffffffffffffffff1673ffffffffffffffffffffffffffffffffffffffff168152602001908152602001600020600083815260200190815260200160002060009054906101000a900460ff166001811115614276577f4e487b7100000000000000000000000000000000000000000000000000000000600052602160045260246000fd5b14156143a1576001600b60003373ffffffffffffffffffffffffffffffffffffffff1673ffffffffffffffffffffffffffffffffffffffff168152602001908152602001600020600083815260200190815260200160002060006101000a81548160ff02191690831515021790555060003373ffffffffffffffffffffffffffffffffffffffff16600360065461430d919061528d565b60405161431990614de8565b60006040518083038185875af1925050503d8060008114614356576040519150601f19603f3d011682016040523d82523d6000602084013e61435b565b606091505b505090508061439f576040517f08c379a000000000000000000000000000000000000000000000000000000000815260040161439690614f69565b60405180910390fd5b505b5b5b50565b600560009054906101000a900473ffffffffffffffffffffffffffffffffffffffff1673ffffffffffffffffffffffffffffffffffffffff163373ffffffffffffffffffffffffffffffffffffffff161461440057600080fd5b600080600090505b600281116144bf578273ffffffffffffffffffffffffffffffffffffffff1660048281548110614461577f4e487b7100000000000000000000000000000000000000000000000000000000600052603260045260246000fd5b9060005260206000200160009054906101000a900473ffffffffffffffffffffffffffffffffffffffff1673ffffffffffffffffffffffffffffffffffffffff1614156144ac578091505b80806144b790615382565b915050614408565b5060008190505b600181116145d45760046001826144dd9190615237565b81548110614514577f4e487b7100000000000000000000000000000000000000000000000000000000600052603260045260246000fd5b9060005260206000200160009054906101000a900473ffffffffffffffffffffffffffffffffffffffff1660048281548110614579577f4e487b7100000000000000000000000000000000000000000000000000000000600052603260045260246000fd5b9060005260206000200160006101000a81548173ffffffffffffffffffffffffffffffffffffffff021916908373ffffffffffffffffffffffffffffffffffffffff16021790555080806145cc90615382565b9150506144c6565b50600480548061460d577f4e487b7100000000000000000000000000000000000000000000000000000000600052603160045260246000fd5b6001900381819060005260206000200160006101000a81549073ffffffffffffffffffffffffffffffffffffffff021916905590555050565b600081600001549050919050565b6001816000016000828254019250508190555050565b60405180610120016040528060008152602001600073ffffffffffffffffffffffffffffffffffffffff168152602001600073ffffffffffffffffffffffffffffffffffffffff16815260200160008152602001600073ffffffffffffffffffffffffffffffffffffffff168152602001600073ffffffffffffffffffffffffffffffffffffffff1681526020016000815260200160006002811115614739577f4e487b7100000000000000000000000000000000000000000000000000000000600052602160045260246000fd5b815260200160006002811115614778577f4e487b7100000000000000000000000000000000000000000000000000000000600052602160045260246000fd5b81525090565b60008135905061478d816156ac565b92915050565b6000813590506147a2816156c3565b92915050565b6000813590506147b7816156d3565b92915050565b6000602082840312156147cf57600080fd5b60006147dd8482850161477e565b91505092915050565b600080600080600060a086880312156147fe57600080fd5b600061480c8882890161477e565b955050602061481d8882890161477e565b945050604061482e888289016147a8565b935050606061483f8882890161477e565b9250506080614850888289016147a8565b9150509295509295909350565b6000806040838503121561487057600080fd5b600061487e8582860161477e565b925050602061488f858286016147a8565b9150509250929050565b6000602082840312156148ab57600080fd5b60006148b9848285016147a8565b91505092915050565b600080604083850312156148d557600080fd5b60006148e3858286016147a8565b92505060206148f485828601614793565b9150509250929050565b600061490a838361492f565b60208301905092915050565b60006149228383614c4d565b6101208301905092915050565b614938816152be565b82525050565b614947816152be565b82525050565b6000614958826151c9565b61496281856151f9565b935061496d836151a9565b8060005b8381101561499e57815161498588826148fe565b9750614990836151df565b925050600181019050614971565b5085935050505092915050565b60006149b6826151d4565b6149c0818561520a565b93506149cb836151b9565b8060005b838110156149fc5781516149e38882614916565b97506149ee836151ec565b9250506001810190506149cf565b5085935050505092915050565b614a12816152d0565b82525050565b614a218161534c565b82525050565b614a308161535e565b82525050565b614a3f8161535e565b82525050565b614a4e81615370565b82525050565b614a5d81615370565b82525050565b6000614a70601583615226565b9150614a7b82615458565b602082019050919050565b6000614a93600d83615226565b9150614a9e82615481565b602082019050919050565b6000614ab6601283615226565b9150614ac1826154aa565b602082019050919050565b6000614ad9601783615226565b9150614ae4826154d3565b602082019050919050565b6000614afc601383615226565b9150614b07826154fc565b602082019050919050565b6000614b1f600f83615226565b9150614b2a82615525565b602082019050919050565b6000614b42601183615226565b9150614b4d8261554e565b602082019050919050565b6000614b65601583615226565b9150614b7082615577565b602082019050919050565b6000614b8860008361521b565b9150614b93826155a0565b600082019050919050565b6000614bab601383615226565b9150614bb6826155a3565b602082019050919050565b6000614bce600e83615226565b9150614bd9826155cc565b602082019050919050565b6000614bf1601083615226565b9150614bfc826155f5565b602082019050919050565b6000614c14601f83615226565b9150614c1f8261561e565b602082019050919050565b6000614c37600f83615226565b9150614c4282615647565b602082019050919050565b61012082016000820151614c646000850182614dbb565b506020820151614c77602085018261492f565b506040820151614c8a604085018261492f565b506060820151614c9d6060850182614dbb565b506080820151614cb0608085018261492f565b5060a0820151614cc360a085018261492f565b5060c0820151614cd660c0850182614dbb565b5060e0820151614ce960e0850182614a45565b50610100820151614cfe610100850182614a27565b50505050565b61012082016000820151614d1b6000850182614dbb565b506020820151614d2e602085018261492f565b506040820151614d41604085018261492f565b506060820151614d546060850182614dbb565b506080820151614d67608085018261492f565b5060a0820151614d7a60a085018261492f565b5060c0820151614d8d60c0850182614dbb565b5060e0820151614da060e0850182614a45565b50610100820151614db5610100850182614a27565b50505050565b614dc481615335565b82525050565b614dd381615335565b82525050565b614de28161533f565b82525050565b6000614df382614b7b565b9150819050919050565b6000602082019050614e12600083018461493e565b92915050565b6000606082019050614e2d600083018661493e565b614e3a602083018561493e565b614e476040830184614dca565b949350505050565b60006020820190508181036000830152614e69818461494d565b905092915050565b60006020820190508181036000830152614e8b81846149ab565b905092915050565b6000602082019050614ea86000830184614a09565b92915050565b6000602082019050614ec36000830184614a18565b92915050565b60006020820190508181036000830152614ee281614a63565b9050919050565b60006020820190508181036000830152614f0281614a86565b9050919050565b60006020820190508181036000830152614f2281614aa9565b9050919050565b60006020820190508181036000830152614f4281614acc565b9050919050565b60006020820190508181036000830152614f6281614aef565b9050919050565b60006020820190508181036000830152614f8281614b12565b9050919050565b60006020820190508181036000830152614fa281614b35565b9050919050565b60006020820190508181036000830152614fc281614b58565b9050919050565b60006020820190508181036000830152614fe281614b9e565b9050919050565b6000602082019050818103600083015261500281614bc1565b9050919050565b6000602082019050818103600083015261502281614be4565b9050919050565b6000602082019050818103600083015261504281614c07565b9050919050565b6000602082019050818103600083015261506281614c2a565b9050919050565b60006101208201905061507f6000830184614d04565b92915050565b600060208201905061509a6000830184614dca565b92915050565b6000610120820190506150b6600083018c614dca565b6150c3602083018b61493e565b6150d0604083018a61493e565b6150dd6060830189614dca565b6150ea608083018861493e565b6150f760a083018761493e565b61510460c0830186614dca565b61511160e0830185614a54565b61511f610100830184614a36565b9a9950505050505050505050565b600060c0820190506151426000830189614dca565b61514f602083018861493e565b61515c604083018761493e565b6151696060830186614dca565b6151766080830185614a54565b61518360a0830184614a36565b979650505050505050565b60006020820190506151a36000830184614dd9565b92915050565b6000819050602082019050919050565b6000819050602082019050919050565b600081519050919050565b600081519050919050565b6000602082019050919050565b6000602082019050919050565b600082825260208201905092915050565b600082825260208201905092915050565b600081905092915050565b600082825260208201905092915050565b600061524282615335565b915061524d83615335565b9250827fffffffffffffffffffffffffffffffffffffffffffffffffffffffffffffffff03821115615282576152816153cb565b5b828201905092915050565b600061529882615335565b91506152a383615335565b9250826152b3576152b26153fa565b5b828204905092915050565b60006152c982615315565b9050919050565b60008115159050919050565b60008190506152ea82615670565b919050565b60008190506152fd82615684565b919050565b600081905061531082615698565b919050565b600073ffffffffffffffffffffffffffffffffffffffff82169050919050565b6000819050919050565b600060ff82169050919050565b6000615357826152dc565b9050919050565b6000615369826152ef565b9050919050565b600061537b82615302565b9050919050565b600061538d82615335565b91507fffffffffffffffffffffffffffffffffffffffffffffffffffffffffffffffff8214156153c0576153bf6153cb565b5b600182019050919050565b7f4e487b7100000000000000000000000000000000000000000000000000000000600052601160045260246000fd5b7f4e487b7100000000000000000000000000000000000000000000000000000000600052601260045260246000fd5b7f4e487b7100000000000000000000000000000000000000000000000000000000600052602160045260246000fd5b7f4a55524f525f4e554d4245525f45584345454445440000000000000000000000600082015250565b7f494e56414c49445f505249434500000000000000000000000000000000000000600082015250565b7f4e4f545f56455249464945445f4a55524f520000000000000000000000000000600082015250565b7f4e4f545f454c494749424c455f464f525f564f54494e47000000000000000000600082015250565b7f4a55524f525f4e4f545f564f5445445f59455400000000000000000000000000600082015250565b7f5452414e534645525f4641494c45440000000000000000000000000000000000600082015250565b7f434153455f4e4f545f5245534f4c564544000000000000000000000000000000600082015250565b7f444953505554455f414c52454144595f564f5445440000000000000000000000600082015250565b50565b7f4a55524f525f414c52454144595f564f54454400000000000000000000000000600082015250565b7f4e4f545f56414c49445f564f5445000000000000000000000000000000000000600082015250565b7f5041594d454e545f4e4f545f4d41444500000000000000000000000000000000600082015250565b7f5265656e7472616e637947756172643a207265656e7472616e742063616c6c00600082015250565b7f414c52454144595f434c41494d45440000000000000000000000000000000000600082015250565b6002811061568157615680615429565b5b50565b6003811061569557615694615429565b5b50565b600381106156a9576156a8615429565b5b50565b6156b5816152be565b81146156c057600080fd5b50565b600281106156d057600080fd5b50565b6156dc81615335565b81146156e757600080fd5b5056fea2646970667358221220dec9a70ef75a1c84c64f1bf96c0dca3cc51a5695eefb219d34375b6735c72c8d64736f6c63430008040033",
  "linkReferences": {},
  "deployedLinkReferences": {}
}