{
  "_format": "hh-sol-artifact-1",
  "contractName": "DisputeNFT",
  "sourceName": "contracts/DisputeNFT.sol",
  "abi": [
    {
      "inputs": [
        {
          "internalType": "address",
          "name": "marketplaceAddress",
          "type": "address"
        }
      ],
      "stateMutability": "nonpayable",
      "type": "constructor"
    },
    {
      "anonymous": false,
      "inputs": [
        {
          "indexed": true,
          "internalType": "address",
          "name": "owner",
          "type": "address"
        },
        {
          "indexed": true,
          "internalType": "address",
          "name": "approved",
          "type": "address"
        },
        {
          "indexed": true,
          "internalType": "uint256",
          "name": "tokenId",
          "type": "uint256"
        }
      ],
      "name": "Approval",
      "type": "event"
    },
    {
      "anonymous": false,
      "inputs": [
        {
          "indexed": true,
          "internalType": "address",
          "name": "owner",
          "type": "address"
        },
        {
          "indexed": true,
          "internalType": "address",
          "name": "operator",
          "type": "address"
        },
        {
          "indexed": false,
          "internalType": "bool",
          "name": "approved",
          "type": "bool"
        }
      ],
      "name": "ApprovalForAll",
      "type": "event"
    },
    {
      "anonymous": false,
      "inputs": [
        {
          "indexed": true,
          "internalType": "address",
          "name": "from",
          "type": "address"
        },
        {
          "indexed": true,
          "internalType": "address",
          "name": "to",
          "type": "address"
        },
        {
          "indexed": true,
          "internalType": "uint256",
          "name": "tokenId",
          "type": "uint256"
        }
      ],
      "name": "Transfer",
      "type": "event"
    },
    {
      "inputs": [
        {
          "internalType": "address",
          "name": "to",
          "type": "address"
        },
        {
          "internalType": "uint256",
          "name": "tokenId",
          "type": "uint256"
        }
      ],
      "name": "approve",
      "outputs": [],
      "stateMutability": "nonpayable",
      "type": "function"
    },
    {
      "inputs": [
        {
          "internalType": "address",
          "name": "owner",
          "type": "address"
        }
      ],
      "name": "balanceOf",
      "outputs": [
        {
          "internalType": "uint256",
          "name": "",
          "type": "uint256"
        }
      ],
      "stateMutability": "view",
      "type": "function"
    },
    {
      "inputs": [
        {
          "internalType": "uint256",
          "name": "tokenId",
          "type": "uint256"
        }
      ],
      "name": "getApproved",
      "outputs": [
        {
          "internalType": "address",
          "name": "",
          "type": "address"
        }
      ],
      "stateMutability": "view",
      "type": "function"
    },
    {
      "inputs": [
        {
          "internalType": "address",
          "name": "owner",
          "type": "address"
        },
        {
          "internalType": "address",
          "name": "operator",
          "type": "address"
        }
      ],
      "name": "isApprovedForAll",
      "outputs": [
        {
          "internalType": "bool",
          "name": "",
          "type": "bool"
        }
      ],
      "stateMutability": "view",
      "type": "function"
    },
    {
      "inputs": [
        {
          "internalType": "string",
          "name": "_tokenURI",
          "type": "string"
        }
      ],
      "name": "mintToken",
      "outputs": [
        {
          "internalType": "uint256",
          "name": "",
          "type": "uint256"
        }
      ],
      "stateMutability": "nonpayable",
      "type": "function"
    },
    {
      "inputs": [],
      "name": "name",
      "outputs": [
        {
          "internalType": "string",
          "name": "",
          "type": "string"
        }
      ],
      "stateMutability": "view",
      "type": "function"
    },
    {
      "inputs": [
        {
          "internalType": "uint256",
          "name": "tokenId",
          "type": "uint256"
        }
      ],
      "name": "ownerOf",
      "outputs": [
        {
          "internalType": "address",
          "name": "",
          "type": "address"
        }
      ],
      "stateMutability": "view",
      "type": "function"
    },
    {
      "inputs": [
        {
          "internalType": "address",
          "name": "from",
          "type": "address"
        },
        {
          "internalType": "address",
          "name": "to",
          "type": "address"
        },
        {
          "internalType": "uint256",
          "name": "tokenId",
          "type": "uint256"
        }
      ],
      "name": "safeTransferFrom",
      "outputs": [],
      "stateMutability": "nonpayable",
      "type": "function"
    },
    {
      "inputs": [
        {
          "internalType": "address",
          "name": "from",
          "type": "address"
        },
        {
          "internalType": "address",
          "name": "to",
          "type": "address"
        },
        {
          "internalType": "uint256",
          "name": "tokenId",
          "type": "uint256"
        },
        {
          "internalType": "bytes",
          "name": "_data",
          "type": "bytes"
        }
      ],
      "name": "safeTransferFrom",
      "outputs": [],
      "stateMutability": "nonpayable",
      "type": "function"
    },
    {
      "inputs": [
        {
          "internalType": "address",
          "name": "operator",
          "type": "address"
        },
        {
          "internalType": "bool",
          "name": "approved",
          "type": "bool"
        }
      ],
      "name": "setApprovalForAll",
      "outputs": [],
      "stateMutability": "nonpayable",
      "type": "function"
    },
    {
      "inputs": [
        {
          "internalType": "bytes4",
          "name": "interfaceId",
          "type": "bytes4"
        }
      ],
      "name": "supportsInterface",
      "outputs": [
        {
          "internalType": "bool",
          "name": "",
          "type": "bool"
        }
      ],
      "stateMutability": "view",
      "type": "function"
    },
    {
      "inputs": [],
      "name": "symbol",
      "outputs": [
        {
          "internalType": "string",
          "name": "",
          "type": "string"
        }
      ],
      "stateMutability": "view",
      "type": "function"
    },
    {
      "inputs": [
        {
          "internalType": "uint256",
          "name": "tokenId",
          "type": "uint256"
        }
      ],
      "name": "tokenURI",
      "outputs": [
        {
          "internalType": "string",
          "name": "",
          "type": "string"
        }
      ],
      "stateMutability": "view",
      "type": "function"
    },
    {
      "inputs": [
        {
          "internalType": "address",
          "name": "from",
          "type": "address"
        },
        {
          "internalType": "address",
          "name": "to",
          "type": "address"
        },
        {
          "internalType": "uint256",
          "name": "tokenId",
          "type": "uint256"
        }
      ],
      "name": "transferFrom",
      "outputs": [],
      "stateMutability": "nonpayable",
      "type": "function"
    }
  ],
  "bytecode": "0x60a06040523480156200001157600080fd5b5060405162002e5f38038062002e5f8339818101604052810190620000379190620001dc565b6040518060400160405280600681526020017f4d617276656c00000000000000000000000000000000000000000000000000008152506040518060400160405280600681526020017f4d415256454c00000000000000000000000000000000000000000000000000008152508160009080519060200190620000bb92919062000115565b508060019080519060200190620000d492919062000115565b5050508073ffffffffffffffffffffffffffffffffffffffff1660808173ffffffffffffffffffffffffffffffffffffffff1660601b8152505050620002bb565b82805462000123906200023c565b90600052602060002090601f01602090048101928262000147576000855562000193565b82601f106200016257805160ff191683800117855562000193565b8280016001018555821562000193579182015b828111156200019257825182559160200191906001019062000175565b5b509050620001a29190620001a6565b5090565b5b80821115620001c1576000816000905550600101620001a7565b5090565b600081519050620001d681620002a1565b92915050565b600060208284031215620001ef57600080fd5b6000620001ff84828501620001c5565b91505092915050565b600062000215826200021c565b9050919050565b600073ffffffffffffffffffffffffffffffffffffffff82169050919050565b600060028204905060018216806200025557607f821691505b602082108114156200026c576200026b62000272565b5b50919050565b7f4e487b7100000000000000000000000000000000000000000000000000000000600052602260045260246000fd5b620002ac8162000208565b8114620002b857600080fd5b50565b60805160601c612b85620002da60003960006106ab0152612b856000f3fe608060405234801561001057600080fd5b50600436106100ea5760003560e01c80636352211e1161008c578063a22cb46511610066578063a22cb4651461026f578063b88d4fde1461028b578063c87b56dd146102a7578063e985e9c5146102d7576100ea565b80636352211e146101f157806370a082311461022157806395d89b4114610251576100ea565b8063095ea7b3116100c8578063095ea7b31461016d57806323b872dd1461018957806333eba49a146101a557806342842e0e146101d5576100ea565b806301ffc9a7146100ef57806306fdde031461011f578063081812fc1461013d575b600080fd5b61010960048036038101906101049190611bf1565b610307565b6040516101169190612038565b60405180910390f35b6101276103e9565b6040516101349190612053565b60405180910390f35b61015760048036038101906101529190611c84565b61047b565b6040516101649190611fd1565b60405180910390f35b61018760048036038101906101829190611bb5565b610500565b005b6101a3600480360381019061019e9190611aaf565b610618565b005b6101bf60048036038101906101ba9190611c43565b610678565b6040516101cc9190612275565b60405180910390f35b6101ef60048036038101906101ea9190611aaf565b6106da565b005b61020b60048036038101906102069190611c84565b6106fa565b6040516102189190611fd1565b60405180910390f35b61023b60048036038101906102369190611a4a565b6107ac565b6040516102489190612275565b60405180910390f35b610259610864565b6040516102669190612053565b60405180910390f35b61028960048036038101906102849190611b79565b6108f6565b005b6102a560048036038101906102a09190611afe565b61090c565b005b6102c160048036038101906102bc9190611c84565b61096e565b6040516102ce9190612053565b60405180910390f35b6102f160048036038101906102ec9190611a73565b610ac0565b6040516102fe9190612038565b60405180910390f35b60007f80ac58cd000000000000000000000000000000000000000000000000000000007bffffffffffffffffffffffffffffffffffffffffffffffffffffffff1916827bffffffffffffffffffffffffffffffffffffffffffffffffffffffff191614806103d257507f5b5e139f000000000000000000000000000000000000000000000000000000007bffffffffffffffffffffffffffffffffffffffffffffffffffffffff1916827bffffffffffffffffffffffffffffffffffffffffffffffffffffffff1916145b806103e257506103e182610b54565b5b9050919050565b6060600080546103f8906124cb565b80601f0160208091040260200160405190810160405280929190818152602001828054610424906124cb565b80156104715780601f1061044657610100808354040283529160200191610471565b820191906000526020600020905b81548152906001019060200180831161045457829003601f168201915b5050505050905090565b600061048682610bbe565b6104c5576040517f08c379a00000000000000000000000000000000000000000000000000000000081526004016104bc906121d5565b60405180910390fd5b6004600083815260200190815260200160002060009054906101000a900473ffffffffffffffffffffffffffffffffffffffff169050919050565b600061050b826106fa565b90508073ffffffffffffffffffffffffffffffffffffffff168373ffffffffffffffffffffffffffffffffffffffff16141561057c576040517f08c379a000000000000000000000000000000000000000000000000000000000815260040161057390612235565b60405180910390fd5b8073ffffffffffffffffffffffffffffffffffffffff1661059b610c2a565b73ffffffffffffffffffffffffffffffffffffffff1614806105ca57506105c9816105c4610c2a565b610ac0565b5b610609576040517f08c379a000000000000000000000000000000000000000000000000000000000815260040161060090612115565b60405180910390fd5b6106138383610c32565b505050565b610629610623610c2a565b82610ceb565b610668576040517f08c379a000000000000000000000000000000000000000000000000000000000815260040161065f90612255565b60405180910390fd5b610673838383610dc9565b505050565b60006106846007611025565b6000610690600761103b565b905061069c3382611049565b6106a68184611217565b6106d17f000000000000000000000000000000000000000000000000000000000000000060016108f6565b80915050919050565b6106f58383836040518060200160405280600081525061090c565b505050565b6000806002600084815260200190815260200160002060009054906101000a900473ffffffffffffffffffffffffffffffffffffffff169050600073ffffffffffffffffffffffffffffffffffffffff168173ffffffffffffffffffffffffffffffffffffffff1614156107a3576040517f08c379a000000000000000000000000000000000000000000000000000000000815260040161079a90612155565b60405180910390fd5b80915050919050565b60008073ffffffffffffffffffffffffffffffffffffffff168273ffffffffffffffffffffffffffffffffffffffff16141561081d576040517f08c379a000000000000000000000000000000000000000000000000000000000815260040161081490612135565b60405180910390fd5b600360008373ffffffffffffffffffffffffffffffffffffffff1673ffffffffffffffffffffffffffffffffffffffff168152602001908152602001600020549050919050565b606060018054610873906124cb565b80601f016020809104026020016040519081016040528092919081815260200182805461089f906124cb565b80156108ec5780601f106108c1576101008083540402835291602001916108ec565b820191906000526020600020905b8154815290600101906020018083116108cf57829003601f168201915b5050505050905090565b610908610901610c2a565b838361128b565b5050565b61091d610917610c2a565b83610ceb565b61095c576040517f08c379a000000000000000000000000000000000000000000000000000000000815260040161095390612255565b60405180910390fd5b610968848484846113f8565b50505050565b606061097982610bbe565b6109b8576040517f08c379a00000000000000000000000000000000000000000000000000000000081526004016109af906121b5565b60405180910390fd5b60006006600084815260200190815260200160002080546109d8906124cb565b80601f0160208091040260200160405190810160405280929190818152602001828054610a04906124cb565b8015610a515780601f10610a2657610100808354040283529160200191610a51565b820191906000526020600020905b815481529060010190602001808311610a3457829003601f168201915b505050505090506000610a62611454565b9050600081511415610a78578192505050610abb565b600082511115610aad578082604051602001610a95929190611fad565b60405160208183030381529060405292505050610abb565b610ab68461146b565b925050505b919050565b6000600560008473ffffffffffffffffffffffffffffffffffffffff1673ffffffffffffffffffffffffffffffffffffffff16815260200190815260200160002060008373ffffffffffffffffffffffffffffffffffffffff1673ffffffffffffffffffffffffffffffffffffffff16815260200190815260200160002060009054906101000a900460ff16905092915050565b60007f01ffc9a7000000000000000000000000000000000000000000000000000000007bffffffffffffffffffffffffffffffffffffffffffffffffffffffff1916827bffffffffffffffffffffffffffffffffffffffffffffffffffffffff1916149050919050565b60008073ffffffffffffffffffffffffffffffffffffffff166002600084815260200190815260200160002060009054906101000a900473ffffffffffffffffffffffffffffffffffffffff1673ffffffffffffffffffffffffffffffffffffffff1614159050919050565b600033905090565b816004600083815260200190815260200160002060006101000a81548173ffffffffffffffffffffffffffffffffffffffff021916908373ffffffffffffffffffffffffffffffffffffffff160217905550808273ffffffffffffffffffffffffffffffffffffffff16610ca5836106fa565b73ffffffffffffffffffffffffffffffffffffffff167f8c5be1e5ebec7d5bd14f71427d1e84f3dd0314c0f7b2291e5b200ac8c7c3b92560405160405180910390a45050565b6000610cf682610bbe565b610d35576040517f08c379a0000000000000000000000000000000000000000000000000000000008152600401610d2c906120f5565b60405180910390fd5b6000610d40836106fa565b90508073ffffffffffffffffffffffffffffffffffffffff168473ffffffffffffffffffffffffffffffffffffffff161480610daf57508373ffffffffffffffffffffffffffffffffffffffff16610d978461047b565b73ffffffffffffffffffffffffffffffffffffffff16145b80610dc05750610dbf8185610ac0565b5b91505092915050565b8273ffffffffffffffffffffffffffffffffffffffff16610de9826106fa565b73ffffffffffffffffffffffffffffffffffffffff1614610e3f576040517f08c379a0000000000000000000000000000000000000000000000000000000008152600401610e36906121f5565b60405180910390fd5b600073ffffffffffffffffffffffffffffffffffffffff168273ffffffffffffffffffffffffffffffffffffffff161415610eaf576040517f08c379a0000000000000000000000000000000000000000000000000000000008152600401610ea6906120b5565b60405180910390fd5b610eba838383611512565b610ec5600082610c32565b6001600360008573ffffffffffffffffffffffffffffffffffffffff1673ffffffffffffffffffffffffffffffffffffffff1681526020019081526020016000206000828254610f1591906123e1565b925050819055506001600360008473ffffffffffffffffffffffffffffffffffffffff1673ffffffffffffffffffffffffffffffffffffffff1681526020019081526020016000206000828254610f6c919061235a565b92505081905550816002600083815260200190815260200160002060006101000a81548173ffffffffffffffffffffffffffffffffffffffff021916908373ffffffffffffffffffffffffffffffffffffffff160217905550808273ffffffffffffffffffffffffffffffffffffffff168473ffffffffffffffffffffffffffffffffffffffff167fddf252ad1be2c89b69c2b068fc378daa952ba7f163c4a11628f55a4df523b3ef60405160405180910390a4505050565b6001816000016000828254019250508190555050565b600081600001549050919050565b600073ffffffffffffffffffffffffffffffffffffffff168273ffffffffffffffffffffffffffffffffffffffff1614156110b9576040517f08c379a00000000000000000000000000000000000000000000000000000000081526004016110b090612195565b60405180910390fd5b6110c281610bbe565b15611102576040517f08c379a00000000000000000000000000000000000000000000000000000000081526004016110f990612095565b60405180910390fd5b61110e60008383611512565b6001600360008473ffffffffffffffffffffffffffffffffffffffff1673ffffffffffffffffffffffffffffffffffffffff168152602001908152602001600020600082825461115e919061235a565b92505081905550816002600083815260200190815260200160002060006101000a81548173ffffffffffffffffffffffffffffffffffffffff021916908373ffffffffffffffffffffffffffffffffffffffff160217905550808273ffffffffffffffffffffffffffffffffffffffff16600073ffffffffffffffffffffffffffffffffffffffff167fddf252ad1be2c89b69c2b068fc378daa952ba7f163c4a11628f55a4df523b3ef60405160405180910390a45050565b61122082610bbe565b61125f576040517f08c379a000000000000000000000000000000000000000000000000000000000815260040161125690612175565b60405180910390fd5b8060066000848152602001908152602001600020908051906020019061128692919061186e565b505050565b8173ffffffffffffffffffffffffffffffffffffffff168373ffffffffffffffffffffffffffffffffffffffff1614156112fa576040517f08c379a00000000000000000000000000000000000000000000000000000000081526004016112f1906120d5565b60405180910390fd5b80600560008573ffffffffffffffffffffffffffffffffffffffff1673ffffffffffffffffffffffffffffffffffffffff16815260200190815260200160002060008473ffffffffffffffffffffffffffffffffffffffff1673ffffffffffffffffffffffffffffffffffffffff16815260200190815260200160002060006101000a81548160ff0219169083151502179055508173ffffffffffffffffffffffffffffffffffffffff168373ffffffffffffffffffffffffffffffffffffffff167f17307eab39ab6107e8899845ad3d59bd9653f200f220920489ca2b5937696c31836040516113eb9190612038565b60405180910390a3505050565b611403848484610dc9565b61140f84848484611517565b61144e576040517f08c379a000000000000000000000000000000000000000000000000000000000815260040161144590612075565b60405180910390fd5b50505050565b606060405180602001604052806000815250905090565b606061147682610bbe565b6114b5576040517f08c379a00000000000000000000000000000000000000000000000000000000081526004016114ac90612215565b60405180910390fd5b60006114bf611454565b905060008151116114df576040518060200160405280600081525061150a565b806114e9846116ae565b6040516020016114fa929190611fad565b6040516020818303038152906040525b915050919050565b505050565b60006115388473ffffffffffffffffffffffffffffffffffffffff1661185b565b156116a1578373ffffffffffffffffffffffffffffffffffffffff1663150b7a02611561610c2a565b8786866040518563ffffffff1660e01b81526004016115839493929190611fec565b602060405180830381600087803b15801561159d57600080fd5b505af19250505080156115ce57506040513d601f19601f820116820180604052508101906115cb9190611c1a565b60015b611651573d80600081146115fe576040519150601f19603f3d011682016040523d82523d6000602084013e611603565b606091505b50600081511415611649576040517f08c379a000000000000000000000000000000000000000000000000000000000815260040161164090612075565b60405180910390fd5b805181602001fd5b63150b7a0260e01b7bffffffffffffffffffffffffffffffffffffffffffffffffffffffff1916817bffffffffffffffffffffffffffffffffffffffffffffffffffffffff1916149150506116a6565b600190505b949350505050565b606060008214156116f6576040518060400160405280600181526020017f30000000000000000000000000000000000000000000000000000000000000008152509050611856565b600082905060005b600082146117285780806117119061252e565b915050600a8261172191906123b0565b91506116fe565b60008167ffffffffffffffff81111561176a577f4e487b7100000000000000000000000000000000000000000000000000000000600052604160045260246000fd5b6040519080825280601f01601f19166020018201604052801561179c5781602001600182028036833780820191505090505b5090505b6000851461184f576001826117b591906123e1565b9150600a856117c49190612577565b60306117d0919061235a565b60f81b81838151811061180c577f4e487b7100000000000000000000000000000000000000000000000000000000600052603260045260246000fd5b60200101907effffffffffffffffffffffffffffffffffffffffffffffffffffffffffffff1916908160001a905350600a8561184891906123b0565b94506117a0565b8093505050505b919050565b600080823b905060008111915050919050565b82805461187a906124cb565b90600052602060002090601f01602090048101928261189c57600085556118e3565b82601f106118b557805160ff19168380011785556118e3565b828001600101855582156118e3579182015b828111156118e25782518255916020019190600101906118c7565b5b5090506118f091906118f4565b5090565b5b8082111561190d5760008160009055506001016118f5565b5090565b600061192461191f846122b5565b612290565b90508281526020810184848401111561193c57600080fd5b611947848285612489565b509392505050565b600061196261195d846122e6565b612290565b90508281526020810184848401111561197a57600080fd5b611985848285612489565b509392505050565b60008135905061199c81612af3565b92915050565b6000813590506119b181612b0a565b92915050565b6000813590506119c681612b21565b92915050565b6000815190506119db81612b21565b92915050565b600082601f8301126119f257600080fd5b8135611a02848260208601611911565b91505092915050565b600082601f830112611a1c57600080fd5b8135611a2c84826020860161194f565b91505092915050565b600081359050611a4481612b38565b92915050565b600060208284031215611a5c57600080fd5b6000611a6a8482850161198d565b91505092915050565b60008060408385031215611a8657600080fd5b6000611a948582860161198d565b9250506020611aa58582860161198d565b9150509250929050565b600080600060608486031215611ac457600080fd5b6000611ad28682870161198d565b9350506020611ae38682870161198d565b9250506040611af486828701611a35565b9150509250925092565b60008060008060808587031215611b1457600080fd5b6000611b228782880161198d565b9450506020611b338782880161198d565b9350506040611b4487828801611a35565b925050606085013567ffffffffffffffff811115611b6157600080fd5b611b6d878288016119e1565b91505092959194509250565b60008060408385031215611b8c57600080fd5b6000611b9a8582860161198d565b9250506020611bab858286016119a2565b9150509250929050565b60008060408385031215611bc857600080fd5b6000611bd68582860161198d565b9250506020611be785828601611a35565b9150509250929050565b600060208284031215611c0357600080fd5b6000611c11848285016119b7565b91505092915050565b600060208284031215611c2c57600080fd5b6000611c3a848285016119cc565b91505092915050565b600060208284031215611c5557600080fd5b600082013567ffffffffffffffff811115611c6f57600080fd5b611c7b84828501611a0b565b91505092915050565b600060208284031215611c9657600080fd5b6000611ca484828501611a35565b91505092915050565b611cb681612415565b82525050565b611cc581612427565b82525050565b6000611cd682612317565b611ce0818561232d565b9350611cf0818560208601612498565b611cf981612664565b840191505092915050565b6000611d0f82612322565b611d19818561233e565b9350611d29818560208601612498565b611d3281612664565b840191505092915050565b6000611d4882612322565b611d52818561234f565b9350611d62818560208601612498565b80840191505092915050565b6000611d7b60328361233e565b9150611d8682612675565b604082019050919050565b6000611d9e601c8361233e565b9150611da9826126c4565b602082019050919050565b6000611dc160248361233e565b9150611dcc826126ed565b604082019050919050565b6000611de460198361233e565b9150611def8261273c565b602082019050919050565b6000611e07602c8361233e565b9150611e1282612765565b604082019050919050565b6000611e2a60388361233e565b9150611e35826127b4565b604082019050919050565b6000611e4d602a8361233e565b9150611e5882612803565b604082019050919050565b6000611e7060298361233e565b9150611e7b82612852565b604082019050919050565b6000611e93602e8361233e565b9150611e9e826128a1565b604082019050919050565b6000611eb660208361233e565b9150611ec1826128f0565b602082019050919050565b6000611ed960318361233e565b9150611ee482612919565b604082019050919050565b6000611efc602c8361233e565b9150611f0782612968565b604082019050919050565b6000611f1f60298361233e565b9150611f2a826129b7565b604082019050919050565b6000611f42602f8361233e565b9150611f4d82612a06565b604082019050919050565b6000611f6560218361233e565b9150611f7082612a55565b604082019050919050565b6000611f8860318361233e565b9150611f9382612aa4565b604082019050919050565b611fa78161247f565b82525050565b6000611fb98285611d3d565b9150611fc58284611d3d565b91508190509392505050565b6000602082019050611fe66000830184611cad565b92915050565b60006080820190506120016000830187611cad565b61200e6020830186611cad565b61201b6040830185611f9e565b818103606083015261202d8184611ccb565b905095945050505050565b600060208201905061204d6000830184611cbc565b92915050565b6000602082019050818103600083015261206d8184611d04565b905092915050565b6000602082019050818103600083015261208e81611d6e565b9050919050565b600060208201905081810360008301526120ae81611d91565b9050919050565b600060208201905081810360008301526120ce81611db4565b9050919050565b600060208201905081810360008301526120ee81611dd7565b9050919050565b6000602082019050818103600083015261210e81611dfa565b9050919050565b6000602082019050818103600083015261212e81611e1d565b9050919050565b6000602082019050818103600083015261214e81611e40565b9050919050565b6000602082019050818103600083015261216e81611e63565b9050919050565b6000602082019050818103600083015261218e81611e86565b9050919050565b600060208201905081810360008301526121ae81611ea9565b9050919050565b600060208201905081810360008301526121ce81611ecc565b9050919050565b600060208201905081810360008301526121ee81611eef565b9050919050565b6000602082019050818103600083015261220e81611f12565b9050919050565b6000602082019050818103600083015261222e81611f35565b9050919050565b6000602082019050818103600083015261224e81611f58565b9050919050565b6000602082019050818103600083015261226e81611f7b565b9050919050565b600060208201905061228a6000830184611f9e565b92915050565b600061229a6122ab565b90506122a682826124fd565b919050565b6000604051905090565b600067ffffffffffffffff8211156122d0576122cf612635565b5b6122d982612664565b9050602081019050919050565b600067ffffffffffffffff82111561230157612300612635565b5b61230a82612664565b9050602081019050919050565b600081519050919050565b600081519050919050565b600082825260208201905092915050565b600082825260208201905092915050565b600081905092915050565b60006123658261247f565b91506123708361247f565b9250827fffffffffffffffffffffffffffffffffffffffffffffffffffffffffffffffff038211156123a5576123a46125a8565b5b828201905092915050565b60006123bb8261247f565b91506123c68361247f565b9250826123d6576123d56125d7565b5b828204905092915050565b60006123ec8261247f565b91506123f78361247f565b92508282101561240a576124096125a8565b5b828203905092915050565b60006124208261245f565b9050919050565b60008115159050919050565b60007fffffffff0000000000000000000000000000000000000000000000000000000082169050919050565b600073ffffffffffffffffffffffffffffffffffffffff82169050919050565b6000819050919050565b82818337600083830152505050565b60005b838110156124b657808201518184015260208101905061249b565b838111156124c5576000848401525b50505050565b600060028204905060018216806124e357607f821691505b602082108114156124f7576124f6612606565b5b50919050565b61250682612664565b810181811067ffffffffffffffff8211171561252557612524612635565b5b80604052505050565b60006125398261247f565b91507fffffffffffffffffffffffffffffffffffffffffffffffffffffffffffffffff82141561256c5761256b6125a8565b5b600182019050919050565b60006125828261247f565b915061258d8361247f565b92508261259d5761259c6125d7565b5b828206905092915050565b7f4e487b7100000000000000000000000000000000000000000000000000000000600052601160045260246000fd5b7f4e487b7100000000000000000000000000000000000000000000000000000000600052601260045260246000fd5b7f4e487b7100000000000000000000000000000000000000000000000000000000600052602260045260246000fd5b7f4e487b7100000000000000000000000000000000000000000000000000000000600052604160045260246000fd5b6000601f19601f8301169050919050565b7f4552433732313a207472616e7366657220746f206e6f6e20455243373231526560008201527f63656976657220696d706c656d656e7465720000000000000000000000000000602082015250565b7f4552433732313a20746f6b656e20616c7265616479206d696e74656400000000600082015250565b7f4552433732313a207472616e7366657220746f20746865207a65726f2061646460008201527f7265737300000000000000000000000000000000000000000000000000000000602082015250565b7f4552433732313a20617070726f766520746f2063616c6c657200000000000000600082015250565b7f4552433732313a206f70657261746f7220717565727920666f72206e6f6e657860008201527f697374656e7420746f6b656e0000000000000000000000000000000000000000602082015250565b7f4552433732313a20617070726f76652063616c6c6572206973206e6f74206f7760008201527f6e6572206e6f7220617070726f76656420666f7220616c6c0000000000000000602082015250565b7f4552433732313a2062616c616e636520717565727920666f7220746865207a6560008201527f726f206164647265737300000000000000000000000000000000000000000000602082015250565b7f4552433732313a206f776e657220717565727920666f72206e6f6e657869737460008201527f656e7420746f6b656e0000000000000000000000000000000000000000000000602082015250565b7f45524337323155524953746f726167653a2055524920736574206f66206e6f6e60008201527f6578697374656e7420746f6b656e000000000000000000000000000000000000602082015250565b7f4552433732313a206d696e7420746f20746865207a65726f2061646472657373600082015250565b7f45524337323155524953746f726167653a2055524920717565727920666f722060008201527f6e6f6e6578697374656e7420746f6b656e000000000000000000000000000000602082015250565b7f4552433732313a20617070726f76656420717565727920666f72206e6f6e657860008201527f697374656e7420746f6b656e0000000000000000000000000000000000000000602082015250565b7f4552433732313a207472616e73666572206f6620746f6b656e2074686174206960008201527f73206e6f74206f776e0000000000000000000000000000000000000000000000602082015250565b7f4552433732314d657461646174613a2055524920717565727920666f72206e6f60008201527f6e6578697374656e7420746f6b656e0000000000000000000000000000000000602082015250565b7f4552433732313a20617070726f76616c20746f2063757272656e74206f776e6560008201527f7200000000000000000000000000000000000000000000000000000000000000602082015250565b7f4552433732313a207472616e736665722063616c6c6572206973206e6f74206f60008201527f776e6572206e6f7220617070726f766564000000000000000000000000000000602082015250565b612afc81612415565b8114612b0757600080fd5b50565b612b1381612427565b8114612b1e57600080fd5b50565b612b2a81612433565b8114612b3557600080fd5b50565b612b418161247f565b8114612b4c57600080fd5b5056fea26469706673582212200bd5a09a47f355cb22cbbecf6abe46c7745b47366ff57c9d72f32c6fa4c2412d64736f6c63430008040033",
  "linkReferences": {},
  "deployedLinkReferences": {}
}